:020000040800F2
:1000000038050020A9010008B1010008B30100086B
:10001000B5010008B7010008B901000800000000A0
:10002000000000000000000000000000BB0100080C
:10003000BD01000800000000BF010008390E0008E3
:10004000C3010008C3010008C3010008C301000880
:10005000C3010008C3010008C3010008C301000870
:10006000C3010008C3010008C3010008C301000860
:10007000C3010008C3010008C3010008C301000850
:10008000C3010008C3010008C3010008000000000C
:10009000000000000000000000000000C301000894
:1000A000C3010008C3010008C3010008C301000820
:1000B000C3010008C3010008C3010008C301000810
:1000C000C3010008C3010008C3010008C301000800
:1000D000C3010008C3010008C301000800000000BC
:1000E000C3010008C3010008C301000800000000AC
:1000F000000000000000000000000000C301000834
:1001000000000000C3010008C3010008C30100088B
:1001100000000000000000000000000000000000DF
:10012000C3010008C3010008C3010008C30100089F
:10013000C3010008000000000000000000000000F3
:10014000000000000000000000000000C3010008E3
:10015000C3010008C3010008C3010008C30100086F
:10016000C3010008C30100080000000000000000F7
:10017000000000000000000000000000000000007F
:1001800000000000C30100080000000000000000A3
:10019000C3010008DFF80CD000F07EF800480047EB
:1001A000E11500083805002006488047064800474A
:1001B000FEE7FEE7FEE7FEE7FEE7FEE7FEE7FEE717
:1001C000FEE7FEE7E90E0008950100082DE9F05F63
:1001D0000546002092469B468846064681464024B6
:1001E0001BE0284641464746224600F045F8534664
:1001F0005A46C01A914110D311461846224600F0C3
:100200002CF82D1A67EB01084F46224601200021E9
:1002100000F023F817EB00094E41201EA4F1010461
:10022000DFDC484631462A464346BDE8F09F30B5FC
:100230000B46014600202022012409E021FA02F5A4
:100240009D4205D303FA02F5491B04FA02F528443E
:10025000151EA2F10102F1DC30BD202A04DB203A98
:1002600000FA02F1002070479140C2F1200320FA09
:1002700003F3194390407047202A04DB203A21FA07
:1002800002F00021704721FA02F3D040C2F12002AF
:100290009140084319467047064C074D06E0E06858
:1002A00040F0010394E8070098471034AC42F6D3BD
:1002B000FFF774FF30170008501700082DE9F84FBA
:1002C000DFF860B100224FF001084FF0030A4FF051
:1002D0000F090BF1040E00BF0B6808FA02F423406B
:1002E000A3426ED14D68022D01D0122D0ED1D5083A
:1002F00000EB850CDCF820505607F70E09FA07F6DC
:10030000B5430E69BE402E43CCF820600668550008
:100310000F790AFA05FC07F0030726EA0C06AF403E
:10032000374307604E68012E05D0022E03D0112EF0
:1003300001D0122E0ED18668CF6826EA0C06AF4097
:10034000374387604668A6430C79C4F30014944091
:1003500034434460C6688C6826EA0C06AC403443DB
:10036000C4604C68E40056D52F4C256845F48045A0
:100370002560246822F0030504F4804400942B4C8B
:100380002E19D6F8084895072F0F09FA07F5AC4340
:10039000274DA84201D1002515E0264DA84201D1E4
:1003A000012510E0244DA84201D102250BE0234D88
:1003B000A84201D1032506E0214DA84202D104251F
:1003C00001E028E00725BD402543C6F80858DBF8C2
:1003D00000405D464E689C43F60300D51C432C60EC
:1003E000DEF8004075464E689C43B60300D51C43BA
:1003F0002C600C4D08352C684E689C43F60200D5E5
:100400001C432C60074D0C352C684E689C43B6028B
:1004100000D51C432C60521C102AFFF45DAFBDE8D0
:10042000F88F0000003C0140443802400030014099
:10043000000002400004024000080240000C02409C
:10044000001002400AB1816170470904FBE7000017
:10045000014880687047000004000020024881685D
:100460000278114481607047040000200B4810B5E9
:10047000016841F400710160016841F4806101602C
:10048000016841F480710160032000F08BF80020C6
:1004900000F006F800F024F8002010BD003C0240F7
:1004A00070B50D4D04464FF47A712878B1FBF0F029
:1004B0000A490968B1FBF0F000F00FFB48B9102CB5
:1004C00007D200222146501E00F04CF800206C603C
:1004D00070BD012070BD000004000020100000204D
:1004E0001F4808B5016841F480410160006800F4CC
:1004F000804000901A48001F016841F0805101605F
:10050000006800F080500090072000F04BF80022B7
:1005100011466FF00B0000F025F8002211466FF035
:100520000A0000F01FF8002211466FF0090000F0E9
:1005300019F800221146501F00F014F8002211464D
:10054000101F00F00FF800221146901E00F00AF86C
:100550000022BDE808401146501E00F003B800001C
:1005600044380240F0B40E4B1B680C46C3F3022320
:10057000C3F10705042D00D90425191D072901D24F
:10058000002300E0DB1E012606FA05F1491E21408A
:1005900099409E40761E16403143F0BC00F03CBCB2
:1005A0000CED00E0064900F0070208684FF6FF0373
:1005B000184040EA0220034A1043086070470000D8
:1005C0000CED00E00000FA052DE9F0470E460500AD
:1005D00065D0DFF81481D8F80000F7B200F00F0002
:1005E000B04207D288F80070D8F8000000F00F0081
:1005F000B04254D128683D4C810712D5400703D53D
:10060000206840F4E05020602878000703D5206877
:1006100040F4604020602068A96820F0F0000843A2
:1006200020602878C0072DD0304968680839012833
:1006300012D0022813D0032811D009688907002995
:100640002DDA216821F0030101432160FFF700FF4B
:10065000814641F2883A0EE009688903EFE70968AC
:100660008901ECE7FFF7F4FEA0EB0901514502D93F
:100670000320BDE8F0872068696800F00C00B0EB4B
:10068000810FEFD1D8F80010404601F00F01B142C0
:1006900007D90770006800F00F00B04201D00120B8
:1006A000E7E72878400705D52068E96820F4E0509E
:1006B000084320602878000706D52068296920F4BF
:1006C000604040EAC100206000F03CF82168084A20
:1006D000C1F30311515CC840064908600020FFF7D0
:1006E000DFFE0020C5E70000003C02400838024061
:1006F000181700081000002001480068704700002B
:10070000100000200448054900680968044AC1F344
:100710008221515CC8407047100000200838024018
:10072000281700080448054900680968044AC1F30D
:100730004231515CC8407047100000200838024028
:1007400028170008154810B5006810F00C0214486E
:1007500013D04110042A0FD0082A0ED10F4C241FA9
:100760002268236802F03F025B0207D52068C0F3CD
:100770008810A0FB010106E0084610BD2168C1F306
:100780008811A1FB00010023FFF720FD2168C1F3C0
:100790000141491C4900B0FBF1F010BD083802408E
:1007A0000024F4002DE9F84F050076D02878DFF812
:1007B000F8B2BE4CC00749D0DBF800105846C1F370
:1007C0008101012908D00068C0F3810002280AD104
:1007D000201D0068400206D52068800336D5686871
:1007E0000028E2D032E06868B0F5803F10D0B0F564
:1007F000A02F206810D020F480302060206820F4E2
:10080000802020606868A0B1FFF722FE06460CE059
:10081000206840F48030F4E740F480202060F7E75F
:10082000FFF716FE801B642873D820688003F7D575
:100830000CE0FFF70DFE064605E000BFFFF708FEDF
:10084000801B6428F0D820688003F7D42878DFF86C
:10085000608280074FF000093ED5DBF80010584653
:1008600011F00C0F09D00068C0F3810002280BD1F1
:100870008D48001F0068400206D42068800715D507
:10088000E868012809D111E0E868B8B10120C8F88A
:100890000000FFF7DDFD064605E002E1FFF7D8FDA9
:1008A000801B0228C0D820688007F7D520682969F6
:1008B00020F0F80040EAC10020600DE0C8F8009088
:1008C000FFF7C6FD064604E0FFF7C2FD801B0228C5
:1008D0001FD820688007F7D42878000722D5724EE9
:1008E000744869696C3671B101210160FFF7B0FD90
:1008F000074604E0FFF7ACFDC01B022809D83068AA
:100900008007F7D50EE0C0F80090FFF7A1FD07467D
:1009100005E083E0FFF79CFDC01B02287ED830680D
:100920008007F7D42878400768D5DFF87CA1002736
:100930000AF1380ADAF80000C0000BD4DAF8001027
:1009400041F08051CAF80010DAF80000012700F0E9
:1009500080500090584E3068C00510D4306840F484
:1009600080703060FFF774FD009005E0FFF770FDC8
:100970000099401A022851D83068C005F6D54A4E71
:10098000A868683601280FD00528306810D020F0FC
:1009900001003060306820F004003060A868B8B111
:1009A000FFF756FD00900FE0306840F00100F4E7DB
:1009B00040F004003060F7E7FFF74AFD0099411A64
:1009C00041F28830814264D830688007F4D50EE067
:1009D000FFF73EFD009007E0FFF73AFD0099411A4E
:1009E00041F28830814254D830688007F4D42FB166
:1009F000DAF8001021F08051CAF80010A869C0B3DD
:100A0000DBF80010C1F3810102294AD002284846D0
:100A100007D0C8F86000FFF71BFD00E039E005468D
:100A20003AE04746C8F86000FFF712FD064604E0CA
:100A3000FFF70EFD801B02282BD820688001F7D419
:100A4000D5E907010843A96A1C4A490802EB01419C
:100A50006A6A41EA8211084395F82C1040EA016164
:100A60001148001F016001203866FFF7F1FC0546C0
:100A700005E014E0FFF7ECFC401B022809D82068D1
:100A80008001F7D50BE000BFFFF7E2FC401B022816
:100A900002D90320BDE8F88F20688001F4D400203B
:100AA000F8E70120F6E7000008380240003802406D
:100AB00000004742800E4742007000400000FFFFE8
:100AC0004FF0E0210428086903D020F004000861F9
:100AD000704740F00400FAE7704710B5401EB0F1CF
:100AE000807F01D3012010BD4FF0E02460610F2111
:100AF000601700F091F90020A0610720206100201C
:100B000010BD10B5FFF7E8FF10BD70B5040004D0AC
:100B100094F83900002510B106E0012070BD84F87A
:100B20003850204600F022F8242084F8390020684C
:100B3000C16821F40051C160204600F0FFF920682F
:100B4000016921F4904101612068416921F02A0185
:100B500041612068C16841F40051C160E563202013
:100B600084F8390084F83A00002070BDF0B5DFF851
:100B70008CC004680023224902220126032707258E
:100B8000204887B064450DD10B6843F010030B601B
:100B90000968049501F01001059179028DE8C600FD
:100BA000694613E0DFF860C0644513D11449091F9A
:100BB0000C6844F400340C60096801F400310591BC
:100BC0000C218DE80E00CDE903356946FFF776FB71
:100BD00007B0F0BD0D488442FAD1086840F020000B
:100BE00008600868694600F020000590C0208DE884
:100BF000C500082004900648E8E700000010014006
:100C0000443802400000024000440040001401400B
:100C1000000802402DE9F843044690F83A0099464E
:100C200016460D4620284FD195B18EB194F8380064
:100C3000012849D0012084F838000027E7632220EA
:100C400084F83A00FFF704FCA6858046E68531E08B
:100C50000120BDE8F883E08D401EE085A068434692
:100C6000B0F5805F4FF000024FF020012046CDF834
:100C7000009004D000F0B8FA98B10320E9E700F042
:100C8000B3FA0028F9D1206900282068406803D011
:100C9000C1B225F8011B0DE0C0F3080125F8021BC5
:100CA00008E0206900282068406801D000F07F003B
:100CB00005F8010BE08D0028CDD1202084F83A0002
:100CC00084F838700020C4E70220C2E72DE9F84319
:100CD000044690F839001F4616460D46202850D18C
:100CE000A5B19EB194F8380001284AD0012084F8BB
:100CF00038004FF00008C4F83C80212084F8390007
:100D0000FFF7A6FBA6848146E68426E00120BDE825
:100D1000F883E08C401EE084A0684B46B0F5805F0D
:100D20004FF000024FF080012046009703D000F002
:100D30005BFAE8B90DE000F057FAC8B928882168D5
:100D4000C0F308004860206908B16D1C05E0AD1CC7
:100D500003E0216815F8010B4860E08C0028D8D129
:100D60004B46002240212046009700F03DFA08B192
:100D70000320CCE7202084F8390084F83880002054
:100D8000C5E70220C3E7000030B51F4887B0002444
:100D9000016841F004010160016801F0040105915E
:100DA000016841F080010160016801F08001059156
:100DB000016841F001010160016801F00101059144
:100DC000016841F0020101600068104D00F002006E
:100DD0000590002220212846FFF734FB4FF40050F5
:100DE00000900B48CDE9010469460A48FFF766FA0E
:100DF000202000900120CDE9010469462846039493
:100E0000FFF75CFA07B030BD303802400000024006
:100E100000002110000802400907090E002806DA28
:100E200000F00F0000F1E02080F8141D704700F181
:100E3000E02080F80014704710B5FFF70FFBBDE805
:100E40001040FFF75EBE000030B5254893B0002487
:100E5000016841F080510160006800F080501190FD
:100E60002048016821F4404141F4004101600068DC
:100E7000022500F4404011900120039010200095BD
:100E800006950490CDE907404FF4A870099004201E
:100E90000A9007200B906846FFF784FC00B1FEE73C
:100EA0000F20CDE90C054FF48050CDE90E40022112
:100EB0000CA81094FFF788FB00B1FEE7FFF71CFCBD
:100EC0004FF47A71B0FBF1F0FFF707FE0420FFF753
:100ED000F7FD00221146501EFFF744FB13B030BD52
:100EE00040380240007000401048016841F4700131
:100EF00001600F48016841F0010101600C4A0021C6
:100F00000832116002680B4B1A400260031D0A4A46
:100F10001A60026822F48022026005480C300160E9
:100F200002495806803908607047000088ED00E0EB
:100F300000380240FFFFF6FE103000242DE9F0419A
:100F400004460068016921F44052E16811430161DF
:100F50002168C86849F20C6290432369A268E56978
:100F60001A4363692B431A430243CA6021684869E4
:100F700020F44072A06910434861E1696425B1F52D
:100F8000004F9748974A21684FF032083FD091426E
:100F900001D081427CD1FFF7C5FB00EBC00101EB22
:100FA000001061688900B0FBF1F6FFF7BBFB00EBB6
:100FB000C00101EB001061688900B0FBF1F0B0FBEB
:100FC000F5F06FF01801484306EB800108EB0110C3
:100FD000B0FBF5F000F0F006FFF7A4FB00EBC0015A
:100FE00001EB001061688900B0FBF1F0B0FBF5F097
:100FF00006EB0016FFF796FB00EBC00101EB0010BB
:1010000061688900B0FBF1F7FFF78CFBD2E09142F9
:1010100001D081423DD1FFF785FB00EBC00101EB20
:10102000001061684900B0FBF1F0B0FBF5F006017B
:10103000FFF778FB00EBC00101EB0010616849008D
:10104000B0FBF1F7FFF76EFB00EBC00101EB001006
:1010500061684900B0FBF1F0B0FBF5F06FF01801EA
:10106000484307EB800108EBC100B0FBF5F000F04E
:10107000F80006EB4006FFF755FB00EBC00101EB63
:10108000001061684900B0FBF1F7FFF74BFB3CE053
:1010900055E0FFF737FB00EBC00101EB0010616882
:1010A0004900B0FBF1F0B0FBF5F00601FFF72AFBB9
:1010B00000EBC00101EB001061684900B0FBF1F7E3
:1010C000FFF720FB00EBC00101EB00106168490055
:1010D000B0FBF1F0B0FBF5F06FF01801484307EBFF
:1010E000800108EBC100B0FBF5F000F0F80006EB62
:1010F0004006FFF707FB00EBC00101EB0010616841
:101100004900B0FBF1F7FFF7FDFA00EBC00101EB7E
:10111000001061684900B0FBF1F0B0FBF5F06FF032
:101120001801484307EB800108EBC100B0FBF5F064
:1011300000F00700216830448860BDE8F081FFF7C7
:10114000E1FA00EBC00101EB001061688900B0FB1F
:10115000F1F6FFF7D7FA00EBC00101EB0010616870
:101160008900B0FBF1F0B0FBF5F06FF018014843D7
:1011700006EB800108EB0110B0FBF5F000F0F00683
:10118000FFF7C0FA00EBC00101EB001061688900B5
:10119000B0FBF1F0B0FBF5F006EB0016FFF7B2FA8A
:1011A00000EBC00101EB001061688900B0FBF1F7B2
:1011B000FFF7A8FA00EBC00101EB0010616889009D
:1011C000B0FBF1F0B0FBF5F06FF01801484307EB0E
:1011D000800108EB0110B0FBF5F000F00F00A9E76B
:1011E00000140140001001402DE9F04198461746D7
:1011F0000E460446069D1DE0681C1BD02DB1FFF76E
:1012000027F9A0EB0800A84214D92068C16821F48E
:10121000D071C1602068416921F001014161202045
:1012200084F8390084F83A00002084F8380003205C
:10123000BDE8F0812068006836EA000004D0002094
:10124000B842D9D00020F3E70120F9E70FB4084BEA
:1012500010B504A902AA039800F01CF8044602A9DC
:10126000002000F0B8F9204610BC5DF814FB000027
:10127000D715000802E008C8121F08C1002AFAD1D9
:1012800070477047002001E001C1121F002AFBD106
:10129000704700002DE9FF4F8BB0884605460026B9
:1012A00006E025280BD0DDE90D1290476D1C761C59
:1012B00028780028F5D10FB03046BDE8F08F002423
:1012C000A146A2460122AE4900E0044315F8013FC1
:1012D000203B02FA03F00842F7D128782A2810D0E0
:1012E0006FF02F022878A0F13001092915D809EBF9
:1012F000890102EB410144F0020400EB01096D1C7D
:10130000F0E758F8041B5FEA010903D544F40054E0
:10131000C9F1000944F002046D1C28782E2817D169
:1013200015F8010F44F004042A280ED06FF02F02A4
:101330002878A0F1300109290AD80AEB8A0102EBCA
:10134000410100EB010A6D1CF2E758F804AB6D1C7B
:1013500028786C280FD006DC4C2817D068280DD0D0
:101360006A2814D104E0742810D07A280FD10DE037
:1013700044F400140AE044F4801401E044F44014FE
:101380006978814202D104F580146D1C6D1C2878A7
:10139000692865D006DC00288DD0632827D0642812
:1013A00006D15DE06E2808D073282AD0752877D042
:1013B000DDE90D129047761CE0E0C4F302500228EC
:1013C00009D003280DD0D8F8001004280DD00E60E5
:1013D00008F10408D2E0D8F80010F217C1E9006261
:1013E000F6E7D8F800100E80F2E70E70F0E718F874
:1013F000041B8DF8001000208DF80100EB46012041
:1014000003E058F804BB4FF0FF3061074FF00007CE
:1014100001D40AE07F1C57450DDA8742FADB1BF83E
:1014200007100029F6D106E07F1C8742FCDB1BF881
:1014300007100029F8D1DDE90D23A9EB070081464B
:10144000214600F0B1F83044C61904E0DDE90D1280
:101450001BF8010B90477F1EF8D22146484688E0D2
:1014600058F8040BC4F302514FF00A0B032900D1C2
:1014700000B2042900D140B2002802DA40422D21F6
:1014800002E0210505D52B218DF82410012104E06F
:1014900006E0E10710D02021F6E708AF089113E03D
:1014A00058F8040BC4F302514FF00A0B032900D182
:1014B00080B2042900D1C0B20021EEE75946FEF700
:1014C000B6FE303107F8011D0028F7D1ADEB07005B
:1014D00000F1200B600702D524F4803401E04FF0C6
:1014E000010ADA4502DDAAEB0B0000E0002082468B
:1014F00000EB0B0108980144A9EB01000A90E003FE
:1015000006D4DDE90D2321460A9800F04DF8064483
:101510004FF0000908E009A911F80900DDE90D12F2
:10152000904709F10109761C08998945F3DBE0032E
:101530000CD5DDE90D2321460A9800F035F8064464
:1015400004E0DDE90D1230209047761CBAF100016D
:10155000AAF1010AF5DC05E0DDE90D1217F8010B2F
:101560009047761CBBF10001ABF1010BF4DC0A984B
:101570002146DDE90D2300F005F806446D1C97E6D1
:10158000092801002DE9F041044600251E461746B2
:10159000880404D405E039462020B0476D1C641E41
:1015A000F9D52846BDE8F0812DE9F0410446002533
:1015B0001E469046C80301D5302700E02027880446
:1015C00004D505E041463846B0476D1C641EF9D588
:1015D0002846BDE8F0810A68531C0B601070704704
:1015E000FEF744FFFFF730FCFFF7CEFB39483849E0
:1015F0004FF4165600240160C0E901640C25C46054
:10160000C0E904458461C461FFF77FFA00B1FEE7D9
:101610003048314940380160C0E90164C460C0E924
:1016200004458461C461FFF770FA00B1FEE7294800
:101630002A4940300160C0E90164C460C0E9044542
:101640008461C461FFF761FA224FDFF89480254D71
:10165000A43F4FF4FA7600B1FEE71E493346A439A1
:10166000322201F1E400FFF7D5FA3878312817D09B
:101670006F28F2D1002220214046FEF7E3FE2878B1
:1016800060B1144818A17238FFF7E0FD114982B229
:101690007239334601F13200FFF718FB2C70DCE79A
:1016A000012220214046FEF7CDFE287860B9094886
:1016B00013A17238FFF7CAFD064982B27239334668
:1016C00001F13200FFF702FB01202870C5E700009E
:1016D00000440040B8000020001001400014014008
:1016E000000002400000002053797374656D20698A
:1016F00073206E6F7420576F726B696E670A0000FB
:1017000053797374656D20697320576F726B696EBE
:1017100067203A0A000000000000000000000000FE
:101720000102030406070809000000000102030487
:101730005017000800000020140000007412000878
:10174000641700081400002024050000841200081B
:101750000000000001000000100000000000000078
:041760000024F4006D
:040000050800019559
:00000001FF
