:020000040800F2
:100000000080012055160008A5160008A516000856
:10001000A5160008A5160008A51600080000000097
:10002000000000000000000000000000A51600080D
:10003000A516000800000000A5160008FD15000820
:10004000A5160008A5160008A5160008A5160008A4
:10005000A5160008A5160008A5160008A516000894
:10006000A5160008A5160008A5160008A516000884
:10007000A5160008A5160008A5160008A516000874
:10008000A5160008A5160008A51600080000000027
:10009000000000000000000000000000A51600089D
:1000A000A5160008A5160008A5160008A516000844
:1000B000A5160008A5160008A5160008A516000834
:1000C000A5160008A5160008A5160008A516000824
:1000D000A5160008A5160008A516000800000000D7
:1000E000A5160008A5160008A516000800000000C7
:1000F000000000000000000000000000A51600083D
:1001000000000000A5160008A5160008A5160008A6
:1001100000000000000000000000000000000000DF
:10012000A5160008A5160008A5160008A5160008C3
:10013000A5160008000000000000000000000000FC
:10014000000000000000000000000000A5160008EC
:10015000A5160008A5160008A5160008A516000893
:10016000A5160008A5160008000000000000000009
:10017000000000000000000000000000000000007F
:1001800000000000A51600080000000000000000AC
:04019000A5160008A8
:1001940010B5054C237833B9044B13B10448AFF3BD
:1001A40000800123237010BD0C000020000000001B
:1001B400F016000808B5034B1BB103490348AFF31D
:1001C400008008BD0000000010000020F0160008A8
:1001D40053B94AB9002908BF00281CBF4FF0FF31AA
:1001E4004FF0FF3000F072B9ADF1080C6DE904CEA8
:1001F40000F006F8DDF804E0DDE9022304B07047FE
:100204002DE9F047089E04468846002B4BD18A42CC
:10021400154667D9B2FA82F24AB1C2F1200701FA4F
:1002240002F320FA07F7954047EA030894404FEA9F
:10023400154E230CB8FBFEF71FFA85FC0EFB17883E
:1002440043EA084307FB0CF1994209D9EB1807F17B
:10025400FF3080F01B81994240F21881023F2B4409
:100264005B1AA4B2B3FBFEF00EFB103344EA034462
:1002740000FB0CFCA44509D92C1900F1FF3380F0D4
:100284000781A44540F2048102382C4440EA074027
:10029400A4EB0C0400271EB1D4400023C6E900439C
:1002A4003946BDE8F0878B4209D9002E00F0EB8077
:1002B4000027C6E9000138463946BDE8F087B3FA9D
:1002C40083F7002F47D18B4202D3824200F2FA8097
:1002D400841A61EB030301209846002EE0D0C6E99E
:1002E4000048DDE702B9FFDEB2FA82F2002A40F0EC
:1002F4008F80491B4FEA154E1FFA85F80127B1FB81
:10030400FEFC230C0EFB1C1143EA014308FB0CF119
:10031400994207D9EB180CF1FF3002D2994200F24E
:10032400CD808446591AA3B2B1FBFEF00EFB101423
:1003340043EA044408FB00F8A04507D92C1900F14E
:10034400FF3302D2A04500F2B6801846A4EB08049D
:1003540040EA0C409FE7C7F1200CBB4022FA0CFE98
:100364004EEA030E01FA07F420FA0CF521FA0CF315
:100374004FEA1E482543B3FBF8F92C0C08FB19334C
:100384001FFA8EFA44EA034309FB0AF49C4202FA78
:1003940007F200FA07F10BD91EEB030309F1FF3052
:1003A40080F087809C4240F28480A9F10209734462
:1003B4001B1BADB2B3FBF8F008FB103345EA034452
:1003C40000FB0AFAA24508D91EEB040400F1FF332E
:1003D4006BD2A24569D90238744440EA0940A0FBB3
:1003E4000289A4EB0A044C45C2464B4654D351D06F
:1003F400002E69D0B1EB0A0564EB030404FA0CFC8B
:10040400FD40FC404CEA0505C6E90054002747E7D7
:10041400C2F1200320FA03F7954001FA02F021FA11
:1004240003F34FEA154E3843010CB3FBFEF71FFAF2
:1004340085F80EFB173341EA034107FB08F38B42AF
:1004440004FA02F407D9691807F1FF3C2FD28B4252
:100454002DD9023F2944CB1A81B2B3FBFEF00EFB27
:10046400103341EA034100FB08F38B4207D96918B2
:1004740000F1FF3C17D28B4215D902382944C91A1E
:1004840040EA07473BE73746304609E70746E7E6D1
:100494001846FBE64145ABD2B8EB020A69EB0E0203
:1004A40001381346A4E76046E9E7184695E767462E
:1004B400D1E781467CE702382C4447E7ACF1020CD3
:1004C4002B442FE7384608E73746E9E6704700BF74
:1004D40010B504460E4B18784FF47A73B3FBF0F35F
:1004E4000C4A1068B0FBF3F000F09CF868B90F2CCC
:1004F40001D901200AE0002221464FF0FF3000F02C
:100504005DF8034B5C60002000E0012010BD00BFDB
:10051400000000200800002008B50B4B1A6842F4C4
:1005240000721A601A6842F480621A601A6842F40F
:1005340080721A60032000F02FF80020FFF7C8FF34
:1005440000F0AEFF002008BD003C0240034A1168E1
:10055400034B1B780B441360704700BF2800002036
:1005640000000020014B1868704700BF28000020DD
:1005740038B50446FFF7F6FF0546B4F1FF3F02D055
:10058400044B1B781C44FFF7EDFF401BA042FAD339
:1005940038BD00BF00000020074AD36823F4E0639D
:1005A4001B041B0C000200F4E060184340F0BF6021
:1005B40040F40030D060704700ED00E030B4174BD9
:1005C400DB68C3F30223C3F10704042C28BF04240B
:1005D4001D1D062D18D9033B4FF0FF3505FA04F411
:1005E40021EA0401994005FA03F322EA03031943BB
:1005F40000280BDB0901C9B200F1604000F561403D
:1006040080F8001330BC70470023E5E700F00F00CA
:100614000901C9B2024B1954F4E700BF00ED00E030
:1006240014ED00E00138B0F1807F0AD2064B586027
:10063400064AF02182F823100020986007221A60ED
:1006440070470120704700BF10E000E000ED00E0BB
:10065400042805D0054A136823F004031360704787
:10066400024A136843F004031360704710E000E08B
:10067400704708B5FFF7FCFF08BD68B110B5044624
:1006840043792BB10223637101236371002010BDF0
:10069400037100F04FFFF5E70120704700230F2B93
:1006A40000F2C580F0B482B039E0042200E00022F8
:1006B400B2403A4302345E4E46F824205D4A146840
:1006C400EA4302EA04064F6817F4803F01D045EA82
:1006D4000406584C2660646802EA04064F6817F45E
:1006E400003F01D045EA0406524C6660A46802EA61
:1006F40004064F6817F4801F01D045EA04064D4CE8
:10070400A660E46822404E6816F4001F01D045EA52
:100714000402484CE26001330F2B00F28580012271
:100724009A400C6804EA0205AA42F4D14C68022CEF
:1007340001D0122C10D1DE08083650F826C003F080
:100744000704A7000F24BC402CEA040C0C69BC402D
:1007540044EA0C0440F8264004685F000326BE40C7
:10076400F64306EA040C4C6804F00304BC4044EA73
:100774000C0404604C6804F1FF3CBCF1010F03D984
:10078400112C01D0122C10D1846806EA040CCC6818
:10079400BC4044EA0C048460446824EA02024C68C5
:1007A400C4F300149C4014434460C26816408A6831
:1007B400BA403243C2604A6812F0805FABD0002274
:1007C40001921D4A546C44F480445464526C02F403
:1007D40080420192019A9C08A61C154A52F8267080
:1007E40003F0030296000F22B24027EA0207134ADD
:1007F40090423FF45CAF02F5806290420ED002F565
:10080400806290420CD002F5806290420AD002F5D8
:10081400806290423FF449AF072249E7012247E74B
:10082400022245E7032243E702B0F0BC7047704759
:1008340000380140003C0140003802400000024002
:100844000369194201D1002070470120704712B991
:10085400090481617047816170470000002800F03D
:10086400BB8170B582B00446036813F0010F3BD01E
:10087400A74B9B6803F00C03042B2CD0A44B9B6860
:1008840003F00C03082B21D06368B3F5803F4FD0ED
:10089400B3F5A02F52D09E4B1A6822F480321A600E
:1008A4001A6822F480221A606368002B50D0FFF784
:1008B40059FE0546964B1B6813F4003F14D1FFF70D
:1008C40051FE401B6428F5D903208AE1904B5B68F4
:1008D40013F4800FD8D08E4B1B6813F4003F03D061
:1008E4006368002B00F07A81236813F0020F55D05F
:1008F400874B9B6813F00C0F3ED0854B9B6803F02D
:100904000C03082B33D0E368002B68D0814B012201
:100914001A60FFF727FE05467D4B1B6813F0020F94
:1009240054D1FFF71FFE401B0228F5D9032058E1DC
:10093400774A136843F480331360B5E7744B1A683D
:1009440042F480221A601A6842F480321A60ABE7DB
:10095400FFF708FE05466E4B1B6813F4003FC3D037
:10096400FFF700FE401B6428F5D9032039E1684BEA
:100974005B6813F4800FC6D1654B1B6813F0020F3C
:1009840004D0E368012B01D001202AE1604A1368F6
:1009940023F0F803216943EAC1031360236813F0C9
:1009A400080F40D0636963B35B4B01221A60FFF701
:1009B400D9FD0546564B5B6F13F0020F33D1FFF799
:1009C400D1FD401B0228F5D903200AE1504A1368DF
:1009D40023F0F803216943EAC1031360DEE74D4BBA
:1009E40000221A60FFF7BEFD0546494B1B6813F051
:1009F400020FD3D0FFF7B6FD401B0228F5D9032020
:100A0400EFE0454B00221A60FFF7ACFD0546404B72
:100A14005B6F13F0020F06D0FFF7A4FD401B022802
:100A2400F5D90320DDE0236813F0040F79D0384BA7
:100A34001B6C13F0805F33D100230193344B1A6C89
:100A440042F080521A641B6C03F080530193019BA3
:100A54000125324B1B6813F4807F23D0A368012B3C
:100A640034D0052B38D02A4B1A6F22F001021A67B2
:100A74001A6F22F004021A67A368002B36D0FFF71E
:100A840071FD0646224B1B6F13F0020F48D1FFF78E
:100A940069FD801B41F288339842F3D90320A0E01A
:100AA4000025D6E71D4A136843F480731360FFF7EB
:100AB40059FD0646194B1B6813F4807FCED1FFF70E
:100AC40051FD801B0228F5D903208AE0104A136FD8
:100AD40043F001031367CFE70D4B1A6F42F0040292
:100AE4001A671A6F42F001021A67C5E7FFF73AFD69
:100AF4000646074B1B6F13F0020F11D0FFF732FDB0
:100B0400801B41F288339842F3D9032069E000BF87
:100B14000038024000004742800E47420070004007
:100B2400E5B9A369002B5BD0304A926802F00C024D
:100B3400082A58D0022B17D02D4B00221A60FFF739
:100B440011FD0446294B1B6813F0007F42D0FFF7C8
:100B540009FD001B0228F5D9032042E0234A136C47
:100B640023F080531364DCE7214B00221A60FFF763
:100B7400F9FC05461D4B1B6813F0007F06D0FFF7F8
:100B8400F1FC401B0228F5D903202AE0E369226A1C
:100B94001343626A43EA8213A26A5208013A43EA9F
:100BA4000243E26A43EA0263104A5360104B012293
:100BB4001A60FFF7D7FC04460C4B1B6813F0007F48
:100BC40006D1FFF7CFFC001B0228F5D9032008E06B
:100BD400002006E0002004E001207047012000E02E
:100BE400002002B070BD0120FBE700BF00380240C6
:100BF40060004742324B9B6803F00C03042B5CD02B
:100C0400082B01D02F4870472DE9F04B2C4B5A6824
:100C140002F03F025B6813F4800F2BD0284B5B6813
:100C2400C3F388131E4600275C010025E41A65EB14
:100C34000705A90141EA9461A001001B61EB0501CC
:100C4400CB0043EA5073C400A01943EB07014B02E5
:100C540043EAD0534402204619460023FFF7B8FA6A
:100C6400174B5B68C3F3014301335B00B0FBF3F044
:100C7400BDE8F08B124B5B68C3F388131E46002754
:100C84005C010025E41A65EB0705A90141EA9461BA
:100C9400A001001B61EB0501CB0043EA5073C400C3
:100CA400A01943EB07018B0243EA905384022046C8
:100CB40019460023FFF78CFAD2E70348704700BFB8
:100CC400003802400024F40000127A00002800F0EA
:100CD4009D8070B504464F4B1B6803F00F038B4295
:100CE40009D2CBB24B4A1370136803F00F038B4243
:100CF40001D0012070BD236813F0020F17D013F048
:100D0400040F04D0444A936843F4E0539360236887
:100D140013F0080F04D0404A936843F4604393608F
:100D24003D4A936823F0F003A068034393600D46A3
:100D3400236813F0010F32D06368012B21D09A1E6F
:100D4400012A25D9344A126812F0020F60D03249C0
:100D54008A6822F0030213438B60FFF703FC064604
:100D64002D4B9B6803F00C036268B3EB820F16D023
:100D7400FFF7F8FB801B41F288339842F0D9032037
:100D8400B8E7254A126812F4003FE0D10120B1E728
:100D9400214A126812F0007FD9D10120AAE71D4B25
:100DA4001B6803F00F03AB4209D9EAB2194B1A705E
:100DB4001B6803F00F03AB4201D001209AE72368BC
:100DC40013F0040F06D0144A936823F4E053E16847
:100DD4000B439360236813F0080F07D00E4A9368FF
:100DE40023F46043216943EAC1039360FFF702FFE0
:100DF400094B9B68C3F30313084AD35CD840084BE0
:100E040018600020FFF764FB002073E7012070479F
:100E140001206FE7003C0240003802400817000838
:100E240008000020014B1868704700BF080000202C
:100E340008B5FFF7F7FF044B9B68C3F38223034A0B
:100E4400D35CD84008BD00BF003802401817000822
:100E540008B5FFF7E7FF044B9B68C3F34233034A2B
:100E6400D35CD84008BD00BF003802401817000802
:100E74002DE9F843044601680A6922F44052C36824
:100E840013430B610168CA6822F4164222F00C0273
:100E940083680069034360690343E06903431343C0
:100EA400CB6021684A6922F44072A36913434B6101
:100EB400E369B3F5004F60D02368B84A934200F069
:100EC400148102F58062934200F00F81FFF7B0FFB6
:100ED40000EB800000EB80006568AD00B0FBF5F529
:100EE400AF4FA7FB05356D092E01FFF7A1FF00EBFE
:100EF400800000EB80006568AD00B0FBF5F9FFF7FA
:100F040097FF00EB800000EB80006568AD00B0FB4C
:100F1400F5F5A7FB05356D094FF0640808FB159539
:100F24002D013235A7FB05356D0905F0F005354473
:100F3400FFF77EFF00EB800000EB80006668B600E0
:100F4400B0FBF6F6FFF774FF00EB800000EB8000C7
:100F540063689B00B0FBF3F0A7FB0030400908FB7B
:100F640010684FEA081808F13208A7FB0837C7F3DE
:100F7400431723682F449F600DE12368874A9342F7
:100F84005BD002F58062934257D0FFF751FF00EB2C
:100F9400800000EB800065686D00B0FBF5F5804FC4
:100FA400A7FB05356D092E01FFF742FF00EB80001A
:100FB40000EB800065686D00B0FBF5F9FFF738FFC2
:100FC40000EB800000EB800065686D00B0FBF5F578
:100FD400A7FB05356D094FF0640808FB1595ED0076
:100FE4003235A7FB05356D096D0005F4F8753544F8
:100FF400FFF71EFF00EB800000EB800066687600C0
:10100400B0FBF6F6FFF714FF00EB800000EB800066
:1010140063685B00B0FBF3F3A7FB03235B0908FBE6
:1010240013684FEAC80808F13208A7FB0837C7F36A
:10103400421723682F449F60ADE0FFF709FF00EBE0
:10104400800000EB800065686D00B0FBF5F5544F3F
:10105400A7FB05356D092E01FFF7FAFE00EB8000B2
:1010640000EB800065686D00B0FBF5F9FFF7F0FE5A
:1010740000EB800000EB800065686D00B0FBF5F5C7
:10108400A7FB05356D094FF0640808FB1595ED00C5
:101094003235A7FB05356D096D0005F4F875354447
:1010A400FFF7D6FE00EB800000EB80006668760058
:1010B400B0FBF6F6FFF7CCFE00EB800000EB8000FF
:1010C40063685B00B0FBF3F3A7FB03235B0908FB36
:1010D40013684FEAC80808F13208A7FB0837C7F3BA
:1010E400421723682F449F6055E0FFF7B1FE00EBE1
:1010F400800000EB80006568AD00B0FBF5F5284F7B
:10110400A7FB05356D092E01FFF7A2FE00EB800059
:1011140000EB80006568AD00B0FBF5F9FFF798FEC1
:1011240000EB800000EB80006568AD00B0FBF5F5D6
:10113400A7FB05356D094FF0640808FB15952D01D3
:101144003235A7FB05356D0905F0F0053544FFF789
:101154007FFE00EB800000EB80006668B600B0FB09
:10116400F6F6FFF775FE00EB800000EB8000636885
:101174009B00B0FBF3F0A7FB0030400908FB1068AC
:101184004FEA081808F13208A7FB0837C7F34317DA
:1011940023682F449F60BDE8F88300BF001001401E
:1011A4001F85EB5158B310B5044690F839300BB392
:1011B400242384F839302268D36823F40053D3609D
:1011C4002046FFF755FE2268136923F49043136108
:1011D4002268536923F02A0353612268D36843F4D5
:1011E4000053D3600020E063202384F8393084F86E
:1011F4003A3010BD80F8383000F0B4F9D8E7012057
:101204007047000030B58BB000240194214B1A6B59
:1012140042F004021A631A6B02F004020192019A6A
:1012240002941A6B42F080021A631A6B02F0800275
:101234000292029A03941A6B42F001021A631A6B27
:1012440002F001020392039A04941A6B42F0020220
:101254001A631B6B03F002030493049B0E4D224696
:1012640020212846FFF7F3FA4FF4005305930B4B64
:101274000693079405A90A48FFF710FA202305935B
:10128400012306930794089405A92846FFF706FA54
:101294000BB030BD003802400000024000002110B5
:1012A40000080240FEE7000008B50B480B4B036042
:1012B4004FF4E133436000238360C36003610C2275
:1012C40042618361C361FFF76DFF00B908BD4FF44C
:1012D400B6710348FFF7E6FF7400002000440040A5
:1012E4002017000808B50648064B0360FFF7C5F948
:1012F40000B908BD4FF4A3710348FFF7D3FF00BF43
:101304002C000020003002402017000808B50B48CC
:101314000B4B03604FF4E133436000238360C360ED
:1013240003610C2242618361C361FFF73BFF00B993
:1013340008BD40F259110348FFF7B4FF3400002000
:10134400001001402017000800B595B0002201925A
:101354002B4B196C41F0805119641B6C03F08053C2
:101364000193019B029227490B6823F4404343F401
:1013740000430B600B6803F440430293029B022179
:10138400089101230B9310230C930E910F92109349
:101394004FF4A8731193042312930723139308A8FB
:1013A400FFF75CFA08BB0F23039302210491002387
:1013B40005934FF480520692079303A8FFF786FC27
:1013C400C0B9FFF72FFD104BA3FB00308009FFF7D6
:1013D40029F90420FFF73CF9002211464FF0FF30B1
:1013E400FFF7ECF815B05DF804FB4FF49171074872
:1013F400FFF758FF4FF498710448FFF753FF00BFFD
:101404000038024000700040D34D621020170008DD
:1014140008B50A4C012220212046FFF718FA4FF4A0
:101424007A70FFF7A5F8002220212046FFF70FFA73
:101434004FF47A70FFF79CF8EBE700BF000002401E
:1014440008B5094C012220212046FFF700FA32207A
:10145400FFF78EF8002220212046FFF7F8F932200A
:10146400FFF786F8EDE700BF0000024008B5FFF77C
:1014740053F8FFF769FFFFF7C5FEFFF715FFFFF706
:1014840031FFFFF743FF4FF400510448FFF7D8F949
:1014940008B9FFF7D5FFFFF7BBFF00BF0008024004
:1014A40010B582B000240094214B5A6C42F480425F
:1014B4005A645A6C02F480420092009A01941A6CA5
:1014C40042F080521A641B6C03F080530193019B19
:1014D4000720FFF761F8224621466FF00B00FFF763
:1014E4006DF8224621466FF00A00FFF767F822469E
:1014F40021466FF00900FFF761F8224621466FF09C
:101504000400FFF75BF8224621466FF00300FFF763
:1015140055F8224621466FF00100FFF74FF82246A6
:1015240021464FF0FF30FFF749F802B010BD00BF6D
:10153400003802400268094B9A4200D0704782B0DA
:1015440000230193064B1A6B42F480521A631B6BFF
:1015540003F480530193019B02B0704700300240B2
:101564000038024000B589B003681F4A934205D091
:101574001E4A93421ED009B05DF804FB0023019378
:101584001B4B5A6C42F010025A645B6C03F010035C
:101594000193019B4FF4C06303930223049301233B
:1015A4000593032306930723079303A91148FFF721
:1015B40075F8E0E70023029302F5FA32116C41F466
:1015C40000311164126C02F400320292029A0C226D
:1015D400039202220492059306930723079303A917
:1015E4000448FFF75BF8C6E70010014000440040E0
:1015F400003802400000024008B5FEF7A7FFFFF7DD
:1016040038F808BD0F49D1F8883043F47003C1F8A5
:1016140088300D4B1A6842F001021A60002098606D
:101624001A6822F0847222F480321A60074A5A60DF
:101634001A6822F480221A60D8604FF000638B602D
:10164400704700BF00ED00E0003802401030002475
:10165400DFF834D0002103E00C4B5B5843500431D5
:101664000B480C4B42189A42F6D30B4A02E0002373
:1016740042F8043B094B9A42F9D3FFF7C3FF00F049
:1016840011F8FFF7F3FE70470080012040170008AF
:10169400000000200C0000200C0000207C01002031
:1016A400FEE7000070B50D4E0D4CA41BA4100025E0
:1016B400A54209D10B4E0C4C00F018F8A41BA41041
:1016C4000025A54205D170BD56F82530984701354F
:1016D400EEE756F8253098470135F2E73817000849
:1016E40038170008381700083C170008F8B500BF81
:1016F400F8BC08BC9E467047F8B500BFF8BC08BCEF
:041704009E46704746
:1017080000000000000000000102030406070809A9
:1017180000000000010203042E2E2F5372632F6D68
:0817280061696E2E63000000F0
:08173000D4EAFF7F0100000074
:04173800B9010008EB
:04173C00950100080B
:0C17400001000000100000000024F40074
:040000050800165584
:00000001FF
