:020000040800F2
:1000000000800120D52200082523000825230008B0
:1000100025230008252300082523000800000000F0
:100020000000000000000000000000002523000880
:100030002523000800000000252300087D22000879
:100040002523000825230008252300082523000870
:100050002523000825230008252300082523000860
:100060002523000825230008252300082523000850
:100070002523000825230008252300082523000840
:100080002523000825230008252300080000000080
:100090000000000000000000000000002523000810
:1000A0002523000825230008252300082523000810
:1000B0002523000825230008252300082523000800
:1000C00025230008252300082523000825230008F0
:1000D0002523000825230008252300080000000030
:1000E0002523000825230008252300080000000020
:1000F00000000000000000000000000025230008B0
:1001000000000000252300082523000825230008FF
:1001100000000000000000000000000000000000DF
:10012000252300082523000825230008252300088F
:10013000252300080000000000000000000000006F
:10014000000000000000000000000000252300085F
:10015000252300082523000825230008252300085F
:1001600025230008252300080000000000000000EF
:10017000000000000000000000000000000000007F
:10018000000000002523000800000000000000001F
:04019000252300081B
:1001940010B5054C237833B9044B13B10448AFF3BD
:1001A40000800123237010BD140000200000000013
:1001B4008023000808B5034B1BB103490348AFF380
:1001C400008008BD00000000180000208023000803
:1001D40053B94AB9002908BF00281CBF4FF0FF31AA
:1001E4004FF0FF3000F072B9ADF1080C6DE904CEA8
:1001F40000F006F8DDF804E0DDE9022304B07047FE
:100204002DE9F047089E04468846002B4BD18A42CC
:10021400154667D9B2FA82F24AB1C2F1200701FA4F
:1002240002F320FA07F7954047EA030894404FEA9F
:10023400154E230CB8FBFEF71FFA85FC0EFB17883E
:1002440043EA084307FB0CF1994209D9EB1807F17B
:10025400FF3080F01B81994240F21881023F2B4409
:100264005B1AA4B2B3FBFEF00EFB103344EA034462
:1002740000FB0CFCA44509D92C1900F1FF3380F0D4
:100284000781A44540F2048102382C4440EA074027
:10029400A4EB0C0400271EB1D4400023C6E900439C
:1002A4003946BDE8F0878B4209D9002E00F0EB8077
:1002B4000027C6E9000138463946BDE8F087B3FA9D
:1002C40083F7002F47D18B4202D3824200F2FA8097
:1002D400841A61EB030301209846002EE0D0C6E99E
:1002E4000048DDE702B9FFDEB2FA82F2002A40F0EC
:1002F4008F80491B4FEA154E1FFA85F80127B1FB81
:10030400FEFC230C0EFB1C1143EA014308FB0CF119
:10031400994207D9EB180CF1FF3002D2994200F24E
:10032400CD808446591AA3B2B1FBFEF00EFB101423
:1003340043EA044408FB00F8A04507D92C1900F14E
:10034400FF3302D2A04500F2B6801846A4EB08049D
:1003540040EA0C409FE7C7F1200CBB4022FA0CFE98
:100364004EEA030E01FA07F420FA0CF521FA0CF315
:100374004FEA1E482543B3FBF8F92C0C08FB19334C
:100384001FFA8EFA44EA034309FB0AF49C4202FA78
:1003940007F200FA07F10BD91EEB030309F1FF3052
:1003A40080F087809C4240F28480A9F10209734462
:1003B4001B1BADB2B3FBF8F008FB103345EA034452
:1003C40000FB0AFAA24508D91EEB040400F1FF332E
:1003D4006BD2A24569D90238744440EA0940A0FBB3
:1003E4000289A4EB0A044C45C2464B4654D351D06F
:1003F400002E69D0B1EB0A0564EB030404FA0CFC8B
:10040400FD40FC404CEA0505C6E90054002747E7D7
:10041400C2F1200320FA03F7954001FA02F021FA11
:1004240003F34FEA154E3843010CB3FBFEF71FFAF2
:1004340085F80EFB173341EA034107FB08F38B42AF
:1004440004FA02F407D9691807F1FF3C2FD28B4252
:100454002DD9023F2944CB1A81B2B3FBFEF00EFB27
:10046400103341EA034100FB08F38B4207D96918B2
:1004740000F1FF3C17D28B4215D902382944C91A1E
:1004840040EA07473BE73746304609E70746E7E6D1
:100494001846FBE64145ABD2B8EB020A69EB0E0203
:1004A40001381346A4E76046E9E7184695E767462E
:1004B400D1E781467CE702382C4447E7ACF1020CD3
:1004C4002B442FE7384608E73746E9E6704700BF74
:1004D40010B504460E4B18784FF47A73B3FBF0F35F
:1004E4000C4A1068B0FBF3F000F088F868B90F2CE0
:1004F40001D901200AE0002221464FF0FF3000F02C
:1005040049F8034B5C60002000E0012010BD00BFEF
:10051400000000201000002008B50B4B1A6842F4BC
:1005240000721A601A6842F480621A601A6842F40F
:1005340080721A60032000F01BF80020FFF7C8FF48
:1005440001F0EEFD002008BD003C0240034A1168A2
:10055400034B1B780B441360704700BF300000202E
:1005640000000020014B1868704700BF30000020D5
:10057400074AD36823F4E0631B041B0C000200F455
:10058400E060184340F0BF6040F40030D060704732
:1005940000ED00E030B4174BDB68C3F30223C3F172
:1005A4000704042C28BF04241D1D062D18D9033B61
:1005B4004FF0FF3505FA04F421EA0401994005FAE5
:1005C40003F322EA0303194300280BDB0901C9B230
:1005D40000F1604000F5614080F8001330BC7047C2
:1005E4000023E5E700F00F000901C9B2024B1954DA
:1005F400F4E700BF00ED00E014ED00E00138B0F1D5
:10060400807F0AD2064B5860064AF02182F82310F4
:100614000020986007221A6070470120704700BFCD
:1006240010E000E000ED00E0042805D0054A13685E
:1006340023F0040313607047024A136843F0040371
:100644001360704710E000E0704708B5FFF7FCFF47
:1006540008BD68B110B5044643792BB10223637118
:1006640001236371002010BD037101F0A3FDF5E7C0
:10067400012070470379012B15D030B40123037195
:1006840002234371002304E0046851F823502560D9
:1006940001339342F8D301234371002303710368A8
:1006A400186830BC704702207047000010B4094934
:1006B4000C6924F440740C610C6944F440740C61BA
:1006C4000C6944F001040C61026043605DF8044B62
:1006D400704700BF003C0240074B1A6922F4407285
:1006E4001A611A6942F400721A611A6942F001022D
:1006F4001A610160704700BF003C0240074B1A6951
:1007040022F440721A611A6942F480721A611A69F9
:1007140042F001021A610180704700BF003C0240B0
:10072400064B1A6922F440721A611A691A611A692D
:1007340042F001021A610170704700BF003C0240A0
:10074400274BDB6813F0100F07D0264AD36943F018
:100754001003D361224B1022DA60214BDB6813F0C3
:10076400200F07D01F4AD36943F00803D3611C4B01
:100774002022DA601A4BDB6813F0400F07D0194AC5
:10078400D36943F00403D361154B4022DA60144B60
:10079400DB6813F0800F07D0124AD36943F00203D9
:1007A400D3610F4B8022DA600D4BDB6813F4807F3A
:1007B40008D00C4AD36943F00103D361084B4FF4CA
:1007C4008072DA60064BDB6813F0020F07D0054A2B
:1007D400D36943F02003D361014B0222DA607047EE
:1007E400003C024034000020094B1B69002B01DB54
:1007F40000207047064B074A5A6002F188325A605B
:100804001B69002B01DB002070470120704700BFEB
:10081400003C024023016745034A136943F0004347
:1008240013610020704700BF003C0240074B5B6926
:1008340013F0010F07D0054B054A9A6002F14432C8
:100844009A60002070470120704700BF003C0240BE
:100854003B2A1908034A536943F0010353610020FA
:10086400704700BF003C024038B50446154B0022D7
:10087400DA61FFF777FE0546134BDB6813F4803F1C
:100884000AD0B4F1FF3FF7D0CCB1FFF76BFE401BA9
:10089400A042F1D903200DE00B4BDB6813F0010FEC
:1008A40002D0094B0122DA60074BDB6813F4F97FAD
:1008B40001D1002038BDFFF743FF0120FAE70320F0
:1008C400F8E700BF34000020003C0240F8B51D4C9E
:1008D400247E012C34D01F4616460D460446194B7F
:1008E40001221A764CF25030FFF7BEFF014698B948
:1008F400BCB1012C1AD0022C1DD032463B462846EE
:10090400FFF7D4FE4CF25030FFF7AEFF01460E4A1B
:10091400136923F0010313610A4B00221A76084677
:10092400F8BDF1B22846FFF7FBFEEBE7B1B228466B
:10093400FFF7E4FEE6E731462846FFF7CDFEE1E7A0
:100944000221ECE734000020003C0240074B1A6906
:1009540022F440721A611A6942F004021A611A6997
:1009640042EA002040F4803018617047003C0240A5
:10097400024B586900F0E000704700BF003C0240A1
:10098400014B1888704700BF163C0240074B1B7888
:10099400DBB2CC2B08D0054B1B78DBB2552B01D036
:1009A400AA20704755207047CC207047153C024060
:1009B400024B187800F00C00704700BF143C024052
:1009C40010B504460F230360FFF7DAFFA060FFF7BA
:1009D400DDFF2061FFF7CCFF2076FFF7E9FF6061C0
:1009E40010BD000010B449B1012921D0022902D060
:1009F4004FF4407403E04FF4007400E000240E4B05
:100A0400196921F4407119611A6922431A611A693A
:100A140022F0F8021A611A6942EAC00040F00200AA
:100A240018611A6942F480321A615DF8044B704708
:100A34004FF48074E3E700BF003C0240164B1B6890
:100A440013F4007F10D0144B1A6822F400721A6059
:100A54001A6842F400621A601A6822F400621A608A
:100A64001A6842F400721A600B4B1B6813F4806F0F
:100A740010D0094B1A6822F480621A601A6842F492
:100A840080521A601A6822F480521A601A6842F47A
:100A940080621A60704700BF003C0240F8B5224BE8
:100AA4001B7E012B3ED00E4604461F4B01221A76B4
:100AB4004CF25030FFF7D8FE074670BB4FF0FF33BF
:100AC40033602368012B16D0A568E368A268134439
:100AD400AB4220D9217C2846FFF784FF4CF25030EA
:100AE400FFF7C2FE114A136923F0FA0313610746A4
:100AF40080B90135E9E76168207CFFF727FF4CF2F4
:100B04005030FFF7B1FE0746084A136923F0040387
:100B1400136100E03560FFF791FF034B00221A7662
:100B24003846F8BD0227FBE734000020003C0240B1
:100B340000230F2B00F2C580F0B482B039E0042208
:100B440000E00022B2403A4302345E4E46F82420CC
:100B54005D4A1468EA4302EA04064F6817F4803FCA
:100B640001D045EA0406584C2660646802EA04068B
:100B74004F6817F4003F01D045EA0406524C666002
:100B8400A46802EA04064F6817F4801F01D045EAFE
:100B940004064D4CA660E46822404E6816F4001F1B
:100BA40001D045EA0402484CE26001330F2B00F205
:100BB400858001229A400C6804EA0205AA42F4D115
:100BC4004C68022C01D0122C10D1DE08083650F8E3
:100BD40026C003F00704A7000F24BC402CEA040C31
:100BE4000C69BC4044EA0C0440F8264004685F00E9
:100BF4000326BE40F64306EA040C4C6804F00304E2
:100C0400BC4044EA0C0404604C6804F1FF3CBCF1B1
:100C1400010F03D9112C01D0122C10D1846806EADB
:100C2400040CCC68BC4044EA0C048460446824EAA4
:100C340002024C68C4F300149C4014434460C2682C
:100C440016408A68BA403243C2604A6812F0805F34
:100C5400ABD0002201921D4A546C44F48044546485
:100C6400526C02F480420192019A9C08A61C154A17
:100C740052F8267003F0030296000F22B24027EACE
:100C84000207134A90423FF45CAF02F5806290423F
:100C94000ED002F5806290420CD002F58062904240
:100CA4000AD002F5806290423FF449AF072249E737
:100CB400012247E7022245E7032243E702B0F0BCE2
:100CC4007047704700380140003C01400038024042
:100CD400000002400369194201D10020704701203D
:100CE400704712B90904816170478161704700003F
:100CF400002800F0BB8170B582B00446036813F08D
:100D0400010F3BD0A74B9B6803F00C03042B2CD0A2
:100D1400A44B9B6803F00C03082B21D06368B3F544
:100D2400803F4FD0B3F5A02F52D09E4B1A6822F4C7
:100D340080321A601A6822F480221A606368002BD9
:100D440050D0FFF70FFC0546964B1B6813F4003F89
:100D540014D1FFF707FC401B6428F5D903208AE16E
:100D6400904B5B6813F4800FD8D08E4B1B6813F440
:100D7400003F03D06368002B00F07A81236813F0EE
:100D8400020F55D0874B9B6813F00C0F3ED0854B58
:100D94009B6803F00C03082B33D0E368002B68D066
:100DA400814B01221A60FFF7DDFB05467D4B1B6872
:100DB40013F0020F54D1FFF7D5FB401B0228F5D9DD
:100DC400032058E1774A136843F480331360B5E78E
:100DD400744B1A6842F480221A601A6842F4803212
:100DE4001A60ABE7FFF7BEFB05466E4B1B6813F4B6
:100DF400003FC3D0FFF7B6FB401B6428F5D903209E
:100E040039E1684B5B6813F4800FC6D1654B1B68EE
:100E140013F0020F04D0E368012B01D001202AE172
:100E2400604A136823F0F803216943EAC10313609D
:100E3400236813F0080F40D0636963B35B4B01224E
:100E44001A60FFF78FFB0546564B5B6F13F0020FDA
:100E540033D1FFF787FB401B0228F5D903200AE1B1
:100E6400504A136823F0F803216943EAC10313606D
:100E7400DEE74D4B00221A60FFF774FB0546494B31
:100E84001B6813F0020FD3D0FFF76CFB401B022842
:100E9400F5D90320EFE0454B00221A60FFF762FB0F
:100EA4000546404B5B6F13F0020F06D0FFF75AFB69
:100EB400401B0228F5D90320DDE0236813F0040F5A
:100EC40079D0384B1B6C13F0805F33D1002301932E
:100ED400344B1A6C42F080521A641B6C03F080533A
:100EE4000193019B0125324B1B6813F4807F23D0AF
:100EF400A368012B34D0052B38D02A4B1A6F22F06B
:100F040001021A671A6F22F004021A67A368002B01
:100F140036D0FFF727FB0646224B1B6F13F0020F58
:100F240048D1FFF71FFB801B41F288339842F3D965
:100F34000320A0E00025D6E71D4A136843F480731C
:100F44001360FFF70FFB0646194B1B6813F4807FF1
:100F5400CED1FFF707FB801B0228F5D903208AE0D6
:100F6400104A136F43F001031367CFE70D4B1A6F59
:100F740042F004021A671A6F42F001021A67C5E7C9
:100F8400FFF7F0FA0646074B1B6F13F0020F11D060
:100F9400FFF7E8FA801B41F288339842F3D9032023
:100FA40069E000BF0038024000004742800E47421B
:100FB40000700040E5B9A369002B5BD0304A926809
:100FC40002F00C02082A58D0022B17D02D4B002215
:100FD4001A60FFF7C7FA0446294B1B6813F0007F19
:100FE40042D0FFF7BFFA001B0228F5D9032042E0E4
:100FF400234A136C23F080531364DCE7214B002253
:101004001A60FFF7AFFA05461D4B1B6813F0007F0B
:1010140006D0FFF7A7FA401B0228F5D903202AE0DF
:10102400E369226A1343626A43EA8213A26A52089A
:10103400013A43EA0243E26A43EA0263104A536014
:10104400104B01221A60FFF78DFA04460C4B1B6803
:1010540013F0007F06D1FFF785FA001B0228F5D9AB
:10106400032008E0002006E0002004E0012070478F
:10107400012000E0002002B070BD0120FBE700BFAA
:101084000038024060004742324B9B6803F00C0377
:10109400042B5CD0082B01D02F4870472DE9F04B6E
:1010A4002C4B5A6802F03F025B6813F4800F2BD07C
:1010B400284B5B68C3F388131E4600275C01002598
:1010C400E41A65EB0705A90141EA9461A001001B3C
:1010D40061EB0501CB0043EA5073C400A01943EB54
:1010E40007014B0243EAD053440220461946002329
:1010F400FFF76EF8174B5B68C3F3014301335B00E2
:10110400B0FBF3F0BDE8F08B124B5B68C3F38813BC
:101114001E4600275C010025E41A65EB0705A901BA
:1011240041EA9461A001001B61EB0501CB0043EA95
:101134005073C400A01943EB07018B0243EA905398
:101144008402204619460023FFF742F8D2E70348F9
:10115400704700BF003802400024F40000127A00F7
:10116400002800F09D8070B504464F4B1B6803F0C7
:101174000F038B4209D2CBB24B4A1370136803F0AE
:101184000F038B4201D0012070BD236813F0020FBE
:1011940017D013F0040F04D0444A936843F4E05387
:1011A4009360236813F0080F04D0404A936843F413
:1011B400604393603D4A936823F0F003A0680343BF
:1011C40093600D46236813F0010F32D06368012B3E
:1011D40021D09A1E012A25D9344A126812F0020F2E
:1011E40060D032498A6822F0030213438B60FFF710
:1011F400B9F906462D4B9B6803F00C036268B3EB08
:10120400820F16D0FFF7AEF9801B41F28833984263
:10121400F0D90320B8E7254A126812F4003FE0D160
:101224000120B1E7214A126812F0007FD9D10120D0
:10123400AAE71D4B1B6803F00F03AB4209D9EAB2BE
:10124400194B1A701B6803F00F03AB4201D0012045
:101254009AE7236813F0040F06D0144A936823F422
:10126400E053E1680B439360236813F0080F07D041
:101274000E4A936823F46043216943EAC1039360EF
:10128400FFF702FF094B9B68C3F30313084AD35CBF
:10129400D840084B18600020FFF71AF9002073E7C4
:1012A4000120704701206FE7003C024000380240F3
:1012B4009823000810000020014B1868704700BFF5
:1012C4001000002008B5FFF7F7FF044B9B68C3F339
:1012D4008223034AD35CD84008BD00BF00380240D3
:1012E400A823000808B5FFF7E7FF044B9B68C3F386
:1012F4004233034AD35CD84008BD00BF00380240E3
:10130400A82300082DE9F843044601680A6922F479
:101314004052C36813430B610168CA6822F4164241
:1013240022F00C0283680069034360690343E069A7
:1013340003431343CB6021684A6922F44072A369D2
:1013440013434B61E369B3F5004F60D02368B84A97
:10135400934200F0148102F58062934200F00F8101
:10136400FFF7B0FF00EB800000EB80006568AD0084
:10137400B0FBF5F5AF4FA7FB05356D092E01FFF75F
:10138400A1FF00EB800000EB80006568AD00B0FBBE
:10139400F5F9FFF797FF00EB800000EB800065682C
:1013A400AD00B0FBF5F5A7FB05356D094FF06408FA
:1013B40008FB15952D013235A7FB05356D0905F0A0
:1013C400F0053544FFF77EFF00EB800000EB800062
:1013D4006668B600B0FBF6F6FFF774FF00EB80001A
:1013E40000EB800063689B00B0FBF3F0A7FB0030C8
:1013F400400908FB10684FEA081808F13208A7FBF7
:101404000837C7F3431723682F449F600DE123680F
:10141400874A93425BD002F58062934257D0FFF72C
:1014240051FF00EB800000EB800065686D00B0FBAD
:10143400F5F5804FA7FB05356D092E01FFF742FF37
:1014440000EB800000EB800065686D00B0FBF5F9EF
:10145400FFF738FF00EB800000EB800065686D004B
:10146400B0FBF5F5A7FB05356D094FF0640808FBE3
:101474001595ED003235A7FB05356D096D0005F4B2
:10148400F8753544FFF71EFF00EB800000EB800089
:1014940066687600B0FBF6F6FFF714FF00EB8000F9
:1014A40000EB800063685B00B0FBF3F3A7FB03234E
:1014B4005B0908FB13684FEAC80808F13208A7FB68
:1014C4000837C7F3421723682F449F60ADE0FFF746
:1014D40009FF00EB800000EB800065686D00B0FB45
:1014E400F5F5544FA7FB05356D092E01FFF7FAFEFC
:1014F40000EB800000EB800065686D00B0FBF5F93F
:10150400FFF7F0FE00EB800000EB800065686D00E3
:10151400B0FBF5F5A7FB05356D094FF0640808FB32
:101524001595ED003235A7FB05356D096D0005F401
:10153400F8753544FFF7D6FE00EB800000EB800021
:1015440066687600B0FBF6F6FFF7CCFE00EB800091
:1015540000EB800063685B00B0FBF3F3A7FB03239D
:101564005B0908FB13684FEAC80808F13208A7FBB7
:101574000837C7F3421723682F449F6055E0FFF7ED
:10158400B1FE00EB800000EB80006568AD00B0FBAD
:10159400F5F5284FA7FB05356D092E01FFF7A2FECF
:1015A40000EB800000EB80006568AD00B0FBF5F94E
:1015B400FFF798FE00EB800000EB80006568AD004B
:1015C400B0FBF5F5A7FB05356D094FF0640808FB82
:1015D40015952D013235A7FB05356D0905F0F0058C
:1015E4003544FFF77FFE00EB800000EB8000666867
:1015F400B600B0FBF6F6FFF775FE00EB800000EBDB
:10160400800063689B00B0FBF3F0A7FB0030400947
:1016140008FB10684FEA081808F13208A7FB0837DE
:10162400C7F3431723682F449F60BDE8F88300BFC6
:10163400001001401F85EB512DE9F04105460F468E
:1016440016469846069C2B681B6837EA03030CBFB2
:1016540001230023B3421DD1B4F1FF3FF3D02CB1D9
:10166400FEF780FFA0EB0800A042ECD92A68D368FB
:1016740023F4D073D3602A68536923F001035361C0
:10168400202385F8393085F83A30002385F838303E
:10169400032000E00020BDE8F08158B310B50446F3
:1016A40090F839300BB3242384F839302268D36896
:1016B40023F40053D3602046FFF724FE2268136905
:1016C40023F4904313612268536923F02A0353617E
:1016D4002268D36843F40053D3600020E0632023DE
:1016E40084F8393084F83A3010BD80F8383000F08E
:1016F40079FDD8E7012070472DE9F04182B01E46FC
:1017040090F83930DBB2202B55D104460D46904673
:10171400002955D0002A55D090F83830012B53D0E9
:10172400012380F838300023C363212380F8393043
:10173400FEF718FF0746A4F82480A4F8268010E0DA
:1017440000963B46002280212046FFF775FF0028C3
:101754003CD12B882268C3F3080353602369C3B9BF
:101764000235E38C9BB2B3B1E38C013B9BB2E384BF
:10177400A368B3F5805FE3D000963B460022802146
:101784002046FFF759FF18BB2A7823685A600135B1
:10179400E7E70135E5E700963B4600224021204675
:1017A400FFF74AFF0346A8B9202284F83920002213
:1017B40084F8382000E00223184602B0BDE8F08126
:1017C4000123F9E70123F7E70223F5E70323F3E70E
:1017D4000323F1E70323EFE72DE9F04182B01E462E
:1017E40090F83A30DBB2202B5AD104460D4690468D
:1017F400002959D0002A59D090F83830012B57D0FD
:10180400012380F838300023C363222380F83A3060
:10181400FEF7A8FE0746A4F82C80A4F82E801DE04D
:1018240000963B46002220212046FFF705FF0028B2
:1018340040D1236933B923685B68C3F3080325F8EF
:10184400023B0BE023685B68DBB225F8013B05E053
:1018540023685B6803F07F032B700135E38D9BB233
:10186400BBB1E38D013B9BB2E385A368B3F5805F15
:10187400D6D000963B46002220212046FFF7DCFE0E
:10188400D0B92369002BE3D123685B682B70013541
:10189400E4E7202384F83A30002084F8380000E09C
:1018A400022002B0BDE8F0810120FAE70120F8E748
:1018B4000220F6E70320F4E70320F2E730B58BB00B
:1018C40000240194214B1A6B42F004021A631A6B30
:1018D40002F004020192019A02941A6B42F080020F
:1018E4001A631A6B02F080020292029A03941A6B32
:1018F40042F001021A631A6B02F001020392039A86
:1019040004941A6B42F002021A631B6B03F0020385
:101914000493049B0E4D224620212846FFF7E1F94B
:101924004FF4005305930B4B0693079405A90A48FB
:10193400FFF7FEF8202305930123069307940894E8
:1019440005A92846FFF7F4F80BB030BD0038024073
:1019540000000240000021100008024080B500AFE2
:10196400034B1B6883F30888024B1B68984780BDB0
:101974000080000804800008FEE7000008B50B485A
:101984000B4B03604FF4E133436000238360C36077
:1019940003610C2242618361C361FFF77EFE00B9DB
:1019A40008BD4FF4B6710348FFF7E6FF9C00002022
:1019B40000440040B023000808B50648064B036005
:1019C400FEF747FE00B908BD4FF4A3710348FFF7C3
:1019D400D3FF00BF5400002000300240B0230008B1
:1019E40008B50B480B4B03604FF4E133436000230D
:1019F4008360C36003610C2242618361C361FFF7AA
:101A04004CFE00B908BD40F259110348FFF7B4FF7A
:101A14005C00002000100140B023000800B595B020
:101A2400002201922B4B196C41F0805119641B6CFC
:101A340003F080530193019B029227490B6823F41E
:101A4400404343F400430B600B6803F440430293A8
:101A5400029B0221089101230B9310230C930E91F6
:101A64000F9210934FF4A873119304231293072336
:101A7400139308A8FFF73CF908BB0F230393022133
:101A84000491002305934FF480520692079303A810
:101A9400FFF766FBC0B9FFF70FFC104BA3FB003048
:101AA4008009FEF7ABFD0420FEF7BEFD00221146BF
:101AB4004FF0FF30FEF76EFD15B05DF804FB4FF4F8
:101AC40091710748FFF758FF4FF498710448FFF7E6
:101AD40053FF00BF0038024000700040D34D621035
:101AE400B023000800B583B0A5238DF804308DF829
:101AF40005104FF0FF33022201A90348FFF7FCFD54
:101B040003B05DF804FB00BF9C00002000B583B067
:101B140002A97F2301F8013D4FF0FF33012203485E
:101B2400FFF7EAFD03B05DF804FB00BF9C00002052
:101B3400F0B583B006460D4617460024FF2008E0A2
:101B4400335D02A941F8043D01220948FEF792FDE4
:101B54000134AC42F4D3064B1A68936843F0010392
:101B64009360B84202D0012003B0F0BD0020FBE72F
:101B74005400002008B54FF0FF338AB201460248F2
:101B8400FFF7BAFD08BD00BF9C00002010B5044655
:101B94000948017803394258FFF7CAFF10B1FFF72B
:101BA400B5FF10BD08212078FFF79CFF08210348EA
:101BB400FFF7E0FFF5E700BFDC000020080000208D
:101BC4001020704710B582B004460178033942589A
:101BD400FFF7AEFF18B1FFF799FF02B010BD012166
:101BE4002078FFF77FFFFFF7EBFF02AB03F8010D4F
:101BF40001211846FFF7BEFFEFE70000024B18680B
:101C0400C0F30B00704700BF002004E010B582B0A1
:101C140004460023ADF806300C48017803394258D5
:101C2400FFF786FF18B1FFF771FF02B010BD022164
:101C34002078FFF757FFFFF7E1FF02AB23F8020D0F
:101C440002211846FFF796FFEFE700BFDC000020F3
:101C5400024B1868C0F30720704700BF00C0FF1F85
:101C640010B582B0044600238DF807300C48017883
:101C740003394258FFF75CFF18B1FFF747FF02B082
:101C840010BD01212078FFF72DFFFFF7E1FF02AB24
:101C940003F8010D01211846FFF76CFFEFE700BFC1
:101CA400DC0000200020704710B582B004460023F9
:101CB4008DF8073001238DF8063011480178033977
:101CC4004258FFF735FFB8B901212078FFF70AFF22
:101CD400D4F802402046FFF7E5FF38B901210DF1A1
:101CE4000700FFF747FF0134A04707E001210DF18A
:101CF4000600FFF73FFF01E0FFF708FF02B010BD49
:101D0400DC00002010B586B0082923D8A0F1080310
:101D1400DBB2F62B20D9FF2819D0C0F10803DBB2BF
:101D2400994200D80B4600220192039004930123A8
:101D34000293FEF759FD02230593694601A8FEF7B5
:101D4400ADFE0446FEF768FD204606B010BD012333
:101D54000193ECE70424F7E70424F5E730B583B0F6
:101D6400044600238DF8073012480178033942589D
:101D7400FFF7DEFE18B1FFF7C9FE03B030BD012145
:101D84002078FFF7AFFE0C4D012220212846FEF7F4
:101D9400A8FFE178A078FFF7B5FF02AC04F8010DC5
:101DA400002220212846FEF79CFF01212046FFF750
:101DB400E1FEE2E7DC000020000002402DE9F041F2
:101DC40080460F461646FEF70FFD0024254608E020
:101DD40018F804200023E1190020FEF777FD0546DA
:101DE4000134B442F4D3FEF717FD2846BDE8F08170
:101DF400F0B583B0044600238DF807308679D0F817
:101E040002501948017803394258FFF791FE30BB5C
:101E140001212078FFF766FE2846FFF743FFB8B993
:101E2400124F012220213846FEF75BFF3246294635
:101E3400E01DFFF7C3FF02AC04F8010D00222021CE
:101E44003846FEF74EFF01212046FFF793FE08E0D7
:101E5400012102A800F8011DFFF78CFE01E0FFF745
:101E640055FE03B0F0BD00BFDC00002000000240BE
:101E740010B532B9044601291FD0022939D00020F7
:101E840010BDFEF7D3FC2B4BDB6813F4803FFAD173
:101E9400294B1A6822F000421A601A6842F47F0241
:101EA4001A601A6842F002021A60224BDB6813F4CB
:101EB400803FFAD1FEF7CEFCE1E7FEF7B7FC1D4BFD
:101EC400DB6813F4803FFAD11B4B1A6822F00042FE
:101ED4001A601A6822EA04441C601A6842F002027A
:101EE4001A60144BDB6813F4803FFAD1FEF7B2FC9E
:101EF400C5E7FEF79BFC0F4BDB6813F4803FFAD178
:101F04000D4B1A6842F000421A601A6822F47F02EC
:101F14001A601A6842EA04441C601A6842F0020219
:101F24001A60044BDB6813F4803FFAD1FEF792FC8D
:101F3400A5E700BF003C0240143C024010B582B04B
:101F4400044600238DF807300D48017803394258C0
:101F5400FFF7EEFD18B1FFF7D9FD02B010BD012166
:101F64002078FFF7BFFD0022E178A078FFF780FF1B
:101F740002AB03F8010D01211846FFF7FBFDECE766
:101F8400DC00002010B582B0044600238DF8073031
:101F94000D48017803394258FFF7CAFD18B1FFF71D
:101FA400B5FD02B010BD01212078FFF79BFD012291
:101FB40000210846FFF75CFF02AB03F8010D012185
:101FC4001846FFF7D7FDECE7DC00002000B589B028
:101FD400FEF72CFC01A8FEF7F3FCFEF71DFCBDF890
:101FE4000C0009B05DF804FB10B582B004460C483F
:101FF400017803394258FFF79BFD18B1FFF786FDBE
:1020040002B010BD02212078FFF76CFDFFF7DEFF60
:1020140002AB23F8020D02211846FFF7ABFDEFE7F0
:10202400DC00002038B502E02D48FFF7CBFD2C4C36
:10203400C8220021204600F099F92A4D4FF0FF33C1
:10204400012221462846FFF7C7FB21464FF0FF3304
:1020540011F8012B2846FFF7BFFB6378513B0B2B8C
:10206400E5D801A252F823F02D2000089D20000895
:10207400A5200008AD200008B5200008BD200008F8
:10208400C5200008CD20000833200008D520000812
:1020940033200008DD2000081148FFF777FDC6E76C
:1020A4000F48FFF7B3FDC2E70D48FFF7D9FDBEE7C0
:1020B4000B48FFF7F9FDBAE70948FFF74FFEB6E70B
:1020C4000748FFF795FEB2E70548FFF737FFAEE78D
:1020D4000348FFF789FFAAE70148FFF753FFA6E784
:1020E400DC0000209C00002008B5FEF715FAFFF77D
:1020F40095FCFFF7E3FBFFF741FCFFF75DFCFFF7FF
:102104006FFC4FF400510548FEF7E4FD18B1FFF7EA
:1021140025FC002008BDFFF785FF00BF0008024032
:1021240010B582B000240094214B5A6C42F48042D2
:102134005A645A6C02F480420092009A01941A6C18
:1021440042F080521A641B6C03F080530193019B8C
:102154000720FEF70DFA224621466FF00B00FEF72A
:1021640019FA224621466FF00A00FEF713FA2246B6
:1021740021466FF00900FEF70DFA224621466FF062
:102184000400FEF707FA224621466FF00300FEF72B
:1021940001FA224621466FF00100FEF7FBF92246C0
:1021A40021464FF0FF30FEF7F5F902B010BD00BF35
:1021B400003802400268094B9A4200D0704782B04E
:1021C40000230193064B1A6B42F480521A631B6B73
:1021D40003F480530193019B02B070470030024026
:1021E4000038024000B589B003681F4A934205D005
:1021F4001E4A93421ED009B05DF804FB00230193EC
:102204001B4B5A6C42F010025A645B6C03F01003CF
:102214000193019B4FF4C0630393022304930123AE
:102224000593032306930723079303A91148FEF795
:102234007FFCE0E70023029302F5FA32116C41F4CB
:1022440000311164126C02F400320292029A0C22E0
:10225400039202220492059306930723079303A98A
:102264000448FEF765FCC6E7001001400044004046
:10227400003802400000024008B5FEF767F9FEF797
:10228400E4F908BD0F49D1F8883043F47003C1F86C
:1022940088300D4B1A6842F001021A6000209860E1
:1022A4001A6822F0847222F480321A60074A5A6053
:1022B4001A6822F480221A60D8604FF000638B60A1
:1022C400704700BF00ED00E00038024010300024E9
:1022D400DFF834D0002103E00C4B5B584350043149
:1022E4000B480C4B42189A42F6D30B4A02E00023E7
:1022F40042F8043B094B9A42F9D3FFF7C3FF00F0BD
:1023040011F8FFF7F1FE704700800120D023000888
:10231400000000201400002014000020A40100206C
:10232400FEE7000070B50D4E0D4CA41BA410002553
:10233400A54209D10B4E0C4C00F020F8A41BA410AC
:102344000025A54205D170BD56F8253098470135C2
:10235400EEE756F8253098470135F2E7C823000820
:10236400C8230008C8230008CC23000802440346FD
:10237400934200D1704703F8011BF9E7F8B500BF99
:10238400F8BC08BC9E467047F8B500BFF8BC08BC52
:042394009E467047AA
:10239800000000000000000001020304060708090D
:1023A80000000000010203042E2E2F5372632F6DCC
:0823B80061696E2E6300000054
:0823C00044DEFF7F0100000074
:0423C800B90100084F
:0423CC00950100086F
:1023D0000100000010000000515253545556575A46
:0423E0000024F400E1
:04000005080022D5F8
:00000001FF
