:020000040800F2
:1000000040050020A9010008B1010008B301000863
:10001000B5010008B7010008B901000800000000A0
:10002000000000000000000000000000330F000886
:10003000BD01000800000000310F0008350F000866
:10004000C3010008C3010008C3010008C301000880
:10005000C3010008C3010008C3010008C301000870
:10006000C3010008C3010008C3010008C301000860
:10007000C3010008C3010008C3010008C301000850
:10008000C3010008C3010008C3010008000000000C
:10009000000000000000000000000000C301000894
:1000A000C3010008C3010008C3010008C301000820
:1000B000C3010008C3010008C3010008C301000810
:1000C000C3010008C3010008C3010008C301000800
:1000D000C3010008C3010008C301000800000000BC
:1000E000C3010008C3010008C301000800000000AC
:1000F000000000000000000000000000C301000834
:1001000000000000C3010008C3010008C30100088B
:1001100000000000000000000000000000000000DF
:10012000C3010008C3010008C3010008C30100089F
:10013000C3010008000000000000000000000000F3
:10014000000000000000000000000000C3010008E3
:10015000C3010008C3010008C3010008C30100086F
:10016000C3010008C30100080000000000000000F7
:10017000000000000000000000000000000000007F
:1001800000000000C30100080000000000000000A3
:10019000C3010008DFF80CD000F068F80048004701
:1001A00069130008400500200648804706480047BC
:1001B000FEE7FEE7FEE7FEE7FEE7FEE7FEE7FEE717
:1001C000FEE7FEE7E50F0008950100082DE9F05F66
:1001D0000546002092469B468846064681464024B6
:1001E0001BE0284641464746224600F02FF853467A
:1001F0005A46C01A914110D311461846224600F0C3
:1002000016F82D1A67EB01084F46224601200021FF
:1002100000F00DF817EB00094E41201EA4F1010477
:10022000DFDC484631462A464346BDE8F09F202A97
:1002300004DB203A00FA02F1002070479140C2F13D
:10024000200320FA03F3194390407047202A04DB6F
:10025000203A21FA02F00021704721FA02F3D0403F
:10026000C2F120029140084319467047064C074DE1
:1002700006E0E06840F0010394E807009847103476
:10028000AC42F6D3FFF78AFF80140008A0140008E0
:1002900010B501F0D9F801F0C7F800220221054895
:1002A00000F011F944F2506000F006F8BDE810408B
:1002B00001F0ACB80000024031B5084D6C6800F0A8
:1002C00005FB0749B0FBF1F00099484300906868CE
:1002D0000099001B8842FAD338BD0000001000E0EE
:1002E00040420F0010B5040002D0607910B106E062
:1002F000012010BD00202071204600F007F80220E8
:10030000607101206071002010BD000008B5006818
:100310000649884208D10648016841F480510160CD
:10032000006800F48050009008BD000000300240DA
:10033000303802402DE9F84FDFF860B100224FF06D
:1003400001084FF0030A4FF00F090BF1040E00BF34
:100350000B6808FA02F42340A3426ED14D68022DC7
:1003600001D0122D0ED1D50800EB850CDCF8205001
:100370005607F70E09FA07F6B5430E69BE402E433D
:10038000CCF82060066855000F790AFA05FC07F0E2
:10039000030726EA0C06AF40374307604E68012E7C
:1003A00005D0022E03D0112E01D0122E0ED1866858
:1003B000CF6826EA0C06AF40374387604668A643FD
:1003C0000C79C4F30014944034434460C6688C68CC
:1003D00026EA0C06AC403443C4604C68E40056D5B1
:1003E0002F4C256845F480452560246822F00305DC
:1003F00004F4804400942B4C2E19D6F80848950735
:100400002F0F09FA07F5AC43274DA84201D100256B
:1004100015E0264DA84201D1012510E0244DA84247
:1004200001D102250BE0234DA84201D1032506E0AE
:10043000214DA84202D1042501E028E00725BD4056
:100440002543C6F80858DBF800405D464E689C43DB
:10045000F60300D51C432C60DEF8004075464E685C
:100460009C43B60300D51C432C600C4D08352C680A
:100470004E689C43F60200D51C432C60074D0C359A
:100480002C684E689C43B60200D51C432C60521C5D
:10049000102AFFF45DAFBDE8F88F0000003C01407A
:1004A0004438024000300140000002400004024095
:1004B00000080240000C02400010024000690840A1
:1004C00000D0012070470AB1816170470904FBE741
:1004D00001488068704700001000002070B50400DB
:1004E00004D094F83D00002510B106E0012070BD55
:1004F00084F83C50204600F075F8242084F83D0034
:100500002068016821F00101016000F0E5F933493C
:100510002268B0FBF1F15160314A6368934206D919
:100520004FF4967359434FF47A73B1FBF3F1236898
:10053000491C1962616891420BD84900B0FBF1F285
:10054000C2F30B02042A01D2042019E0B0FBF1F03F
:1005500016E0A3689BB301EBC10202EB0112B0FBF2
:10056000F2F242F48042120530D04BB301EBC102EB
:1005700002EB0111B0FBF1F040F4804040F4004088
:100580002168C861D4E90701084321680860D4E9FB
:100590000310084321688860D4E9050108432168F5
:1005A000C8602068016841F00101016025642020D5
:1005B00084F83D00256384F83E50002070BD00E0C3
:1005C00006E001EB4102B0FBF2F2CCE70120D7E7F5
:1005D00001EB4101B0FBF1F0D0E7000040420F0019
:1005E000A086010000B500680E4987B0884216D188
:1005F000C02000901220019001200290032003905F
:100600000420049069460848FFF794FE07480168F3
:1006100041F400110160006800F40010059007B07B
:1006200000BD000000540040000402404038024079
:1006300002488168027811448160704710000020F0
:100640000B4810B5016841F400710160016841F484
:1006500080610160016841F480710160032000F055
:100660008BF8002000F006F800F024F8002010BD00
:10067000003C024070B50D4D04464FF47A71287865
:10068000B1FBF0F00A490968B1FBF0F000F00FFB94
:1006900048B9102C07D200222146501E00F04CF819
:1006A00000206C6070BD012070BD000010000020B3
:1006B0001C0000201F4808B5016841F4804101601A
:1006C000006800F4804000901A48001F016841F063
:1006D00080510160006800F080500090072000F019
:1006E0004BF8002211466FF00B0000F025F80022B5
:1006F00011466FF00A0000F01FF8002211466FF05B
:10070000090000F019F800221146501F00F014F8FB
:1007100000221146101F00F00FF800221146901E13
:1007200000F00AF80022BDE808401146501E00F013
:1007300003B8000044380240F0B40E4B1B680C466E
:10074000C3F30223C3F10705042D00D90425191DA5
:10075000072901D2002300E0DB1E012606FA05F17D
:10076000491E214099409E40761E16403143F0BC00
:1007700000F0CEBB0CED00E0064900F0070208686F
:100780004FF6FF03184040EA0220034A1043086076
:10079000704700000CED00E00000FA052DE9F0477D
:1007A0000E46050065D0DFF81481D8F80000F7B2D6
:1007B00000F00F00B04207D288F80070D8F80000AF
:1007C00000F00F00B04254D128683D4C810712D58B
:1007D000400703D5206840F4E050206028780007E7
:1007E00003D5206840F4604020602068A96820F0AC
:1007F000F000084320602878C0072DD03049686891
:100800000839012812D0022813D0032811D0096812
:10081000890700292DDA216821F0030101432160B5
:10082000FFF756FE814641F2883A0EE009688903D7
:10083000EFE709688901ECE7FFF74AFEA0EB090141
:10084000514502D90320BDE8F0872068696800F0AF
:100850000C00B0EB810FEFD1D8F80010404601F04A
:100860000F01B14207D90770006800F00F00B042D5
:1008700001D00120E7E72878400705D52068E9681E
:1008800020F4E050084320602878000706D520684F
:10089000296920F4604040EAC100206000F03CF883
:1008A0002168084AC1F30311515CC8400649086039
:1008B0000020FFF7DFFE0020C5E70000003C0240FB
:1008C00008380240681400081C0000200148006835
:1008D000704700001C0000200448054900680968B2
:1008E000044AC1F38221515CC84070471C000020BB
:1008F000083802407814000804480549006809686F
:10090000044AC1F34231515CC84070471C000020CA
:100910000838024078140008154810B5006810F037
:100920000C02144813D04110042A0FD0082A0ED10B
:100930000F4C241F2268236802F03F025B0207D598
:100940002068C0F38810A0FB010106E0084610BD36
:100950002168C1F38811A1FB00010023FFF736FCD9
:100960002168C1F30141491C4900B0FBF1F010BD01
:10097000083802400024F4002DE9F84F050076D035
:100980002878DFF8F8B2BE4CC00749D0DBF8001079
:100990005846C1F38101012908D00068C0F38100E5
:1009A00002280AD1201D0068400206D52068800375
:1009B00036D568680028E2D032E06868B0F5803F3C
:1009C00010D0B0F5A02F206810D020F48030206027
:1009D000206820F4802020606868A0B1FFF778FDCF
:1009E00006460CE0206840F48030F4E740F48020B4
:1009F0002060F7E7FFF76CFD801B642873D8206840
:100A00008003F7D50CE0FFF763FD064605E000BF65
:100A1000FFF75EFD801B6428F0D820688003F7D4C0
:100A20002878DFF8608280074FF000093ED5DBF8B8
:100A30000010584611F00C0F09D00068C0F3810077
:100A400002280BD18D48001F0068400206D42068A0
:100A5000800715D5E868012809D111E0E868B8B128
:100A60000120C8F80000FFF733FD064605E002E16B
:100A7000FFF72EFD801B0228C0D820688007F7D51D
:100A80002068296920F0F80040EAC10020600DE0EC
:100A9000C8F80090FFF71CFD064604E0FFF718FDBC
:100AA000801B02281FD820688007F7D42878000709
:100AB00022D5724E744869696C3671B101210160AA
:100AC000FFF706FD074604E0FFF702FDC01B022802
:100AD00009D830688007F7D50EE0C0F80090FFF71E
:100AE000F7FC074605E083E0FFF7F2FCC01B022895
:100AF0007ED830688007F7D42878400768D5DFF8BB
:100B00007CA100270AF1380ADAF80000C0000BD4F3
:100B1000DAF8001041F08051CAF80010DAF800004D
:100B2000012700F080500090584E3068C00510D466
:100B3000306840F480703060FFF7CAFC009005E038
:100B4000FFF7C6FC0099401A022851D83068C0054A
:100B5000F6D54A4EA868683601280FD005283068B7
:100B600010D020F001003060306820F004003060C8
:100B7000A868B8B1FFF7ACFC00900FE0306840F017
:100B80000100F4E740F004003060F7E7FFF7A0FC55
:100B90000099411A41F28830814264D83068800758
:100BA000F4D50EE0FFF794FC009007E0FFF790FC0F
:100BB0000099411A41F28830814254D83068800748
:100BC000F4D42FB1DAF8001021F08051CAF80010E7
:100BD000A869C0B3DBF80010C1F3810102294AD033
:100BE0000228484607D0C8F86000FFF771FC00E013
:100BF00039E005463AE04746C8F86000FFF768FC70
:100C0000064604E0FFF764FC801B02282BD820680E
:100C10008001F7D4D5E907010843A96A1C4A4908AD
:100C200002EB01416A6A41EA8211084395F82C10EF
:100C300040EA01611148001F016001203866FFF79A
:100C400047FC054605E014E0FFF742FC401B022884
:100C500009D820688001F7D50BE000BFFFF738FC0A
:100C6000401B022802D90320BDE8F88F20688001CC
:100C7000F4D40020F8E70120F6E70000083802402D
:100C80000038024000004742800E4742007000409A
:100C90000000FFFF4FF0E0210428086903D020F096
:100CA00004000861704740F00400FAE7704710B58F
:100CB000401EB0F1807F01D3012010BD4FF0E02431
:100CC00060610F21601700F023F90020A061072068
:100CD0002061002010BD10B5FFF7E8FF10BD70B512
:100CE000040004D094F83900002510B106E001207A
:100CF00070BD84F83850204600F022F8242084F893
:100D000039002068C16821F40051C160204600F01C
:100D100093F92068016921F49041016120684169DB
:100D200021F02A0141612068C16841F40051C1608D
:100D3000E563202084F8390084F83A00002070BD73
:100D400030B5174D0468174802210122032387B0EC
:100D5000AC420FD1046844F010040460006800F055
:100D60001000059058028DE80F0007200490694696
:100D70000D4811E00D4DAC4210D1046844F0200440
:100D80000460006800F020000590C0208DE80F008E
:100D90000820049069460648FFF7CCFA07B030BD3A
:100DA000001001404438024000000240001401409D
:100DB000000802402DE9F843044690F839001F4628
:100DC00016460D46202850D1A5B19EB194F83800A2
:100DD00001284AD0012084F838004FF00008C4F8F8
:100DE0003C80212084F83900FFF772FBA6848146FD
:100DF000E68426E00120BDE8F883E08C401EE08414
:100E0000A0684B46B0F5805F4FF000024FF08001C4
:100E10002046009703D000F065FAE8B90DE000F035
:100E200061FAC8B928882168C0F3080048602069C1
:100E300008B16D1C05E0AD1C03E0216815F8010B3D
:100E40004860E08C0028D8D14B4600224021204643
:100E5000009700F047FA08B10320CCE7202084F87F
:100E6000390084F838800020C5E70220C3E700007D
:100E7000164882B00021026842F0800202600268D7
:100E800002F080020092026842F0010202600268F1
:100E900002F001020092026842F00402026002685D
:100EA00002F004020092026842F00202026000684E
:100EB000022200F0020000900548C0E90021816094
:100EC0000146044802B0FFF735BA0000303802404E
:100ED00028010020000002400B4810B509490160BC
:100EE0000A49416000214FF480428160C0E9031249
:100EF00041618161C1610162FFF7F0FA002800D011
:100F0000FEE710BD0054004054000020A086010000
:100F10000907090E002806DA00F00F0000F1E020B2
:100F200080F8141D704700F1E02080F8001470472D
:100F30007047704710B5FFF77BFBBDE81040FFF727
:100F4000CABE000030B5254893B00025016841F0C5
:100F500080510160006800F08050119020480168C5
:100F600021F4404141F4004101600068022400F492
:100F70004040119001200090000401908001CDE9D3
:100F80000640042008905420CDE9090407200B9066
:100F90006846FFF7F1FC00B1FEE70CA90F2081E8DD
:100FA00031004FF48050CDE90F0502210CA8FFF766
:100FB000F5FB00B1FEE7FFF789FC4FF47A71B0FB57
:100FC000F1F0FFF774FE0420FFF764FE00221146E3
:100FD000501EFFF7B1FB13B030BD00004038024097
:100FE000007000401048016841F4700101600F4832
:100FF000016841F0010101600C4A002108321160D2
:1010000002680B4B1A400260031D0A4A1A6002680C
:1010100022F48022026005480C3001600249580623
:10102000803908607047000088ED00E00038024019
:10103000FFFFF6FE103000242DE9F0410446006861
:10104000016921F44052E168114301612168C868D7
:1010500049F20C6290432369A268E5691A43636907
:101060002B431A430243CA602168486920F4407246
:10107000A06910434861E1696425B1F5004F9748C4
:10108000974A21684FF032083FD0914201D0814207
:101090007CD1FFF731FC00EBC00101EB001061686F
:1010A0008900B0FBF1F6FFF727FC00EBC00101EB74
:1010B000001061688900B0FBF1F0B0FBF5F06FF053
:1010C0001801484306EB800108EB0110B0FBF5F076
:1010D00000F0F006FFF710FC00EBC00101EB001080
:1010E00061688900B0FBF1F0B0FBF5F006EB00168B
:1010F000FFF702FC00EBC00101EB00106168890002
:10110000B0FBF1F7FFF7F8FBD2E0914201D081424A
:101110003DD1FFF7F1FB00EBC00101EB001061686E
:101120004900B0FBF1F0B0FBF5F00601FFF7E4FB7E
:1011300000EBC00101EB001061684900B0FBF1F762
:10114000FFF7DAFB00EBC00101EB0010616849001A
:10115000B0FBF1F0B0FBF5F06FF01801484307EB7E
:10116000800108EBC100B0FBF5F000F0F80006EBE1
:101170004006FFF7C1FB00EBC00101EB0010616806
:101180004900B0FBF1F7FFF7B7FB3CE055E0FFF794
:10119000A3FB00EBC00101EB001061684900B0FB4C
:1011A000F1F0B0FBF5F00601FFF796FB00EBC00194
:1011B00001EB001061684900B0FBF1F7FFF78CFB11
:1011C00000EBC00101EB001061684900B0FBF1F0D9
:1011D000B0FBF5F06FF01801484307EB800108EB16
:1011E000C100B0FBF5F000F0F80006EB4006FFF799
:1011F00073FB00EBC00101EB001061684900B0FB1C
:10120000F1F7FFF769FB00EBC00101EB001061682B
:101210004900B0FBF1F0B0FBF5F06FF01801484366
:1012200007EB800108EBC100B0FBF5F000F0070010
:10123000216830448860BDE8F081FFF74DFB00EB8A
:10124000C00101EB001061688900B0FBF1F6FFF707
:1012500043FB00EBC00101EB001061688900B0FBAB
:10126000F1F0B0FBF5F06FF01801484306EB800198
:1012700008EB0110B0FBF5F000F0F006FFF72CFBD7
:1012800000EBC00101EB001061688900B0FBF1F0D8
:10129000B0FBF5F006EB0016FFF71EFB00EBC001FC
:1012A00001EB001061688900B0FBF1F7FFF714FB58
:1012B00000EBC00101EB001061688900B0FBF1F0A8
:1012C000B0FBF5F06FF01801484307EB800108EB25
:1012D0000110B0FBF5F000F00F00A9E70014014089
:1012E000001001402DE9F041984617460E4604468D
:1012F000069D1DE0681C1BD02DB1FFF7E9F8A0EB9F
:101300000800A84214D92068C16821F4D071C160D6
:101310002068416921F001014161202084F83900F1
:1013200084F83A00002084F838000320BDE8F081FA
:101330002068006836EA000004D00020B842D9D006
:101340000020F3E70120F9E702E008C8121F08C1F6
:10135000002AFAD170477047002001E001C1121F36
:10136000002AFBD170470000FFF76AF9FFF7EAFD9A
:10137000FFF77EFDFFF7B0FD1F491E4808600846D5
:10138000FEF7B0FF00B1FEE71D481C494FF41655AB
:1013900000240160C0E901540C26C460C0E9044681
:1013A0008461C461FFF79BFC00B1FEE71448154956
:1013B00040380160C0E90154C460C0E9044684615A
:1013C000C461FFF78CFC00B1FEE7FEF761FF0A4C39
:1013D0000D4D083C4FF4FA7602212846FFF76EF8CF
:1013E00007490246C8396060334601F18800FFF7BB
:1013F000E1FCF1E700300240080000200014014049
:10140000E8000020001001400000024004480221D2
:10141000016000214160816001460248FEF78ABFF9
:101420002801002000000240054820210160012120
:1014300041600021C16001460248FEF77BBF000009
:10144000280100200000024005480221016001211E
:1014500041600021C16001460248FEF76BBF0000F9
:1014600028010020000002400000000000000000F1
:10147000010203040607080900000000010203043A
:10148000A0140008000000202000000048130008FD
:10149000C014000820000020200500005813000898
:1014A000000000000000000000000000000000003C
:1014B0000100000010000000000000000024F40003
:040000050800019559
:00000001FF
