:020000040800F2
:1080000098040020A9810008B1810008B38100080C
:10801000B5810008B7810008B981000800000000A0
:10802000000000000000000000000000BB8100080C
:10803000BD81000800000000BF8100083D8D0008E0
:10804000C3810008C3810008C3810008C381000800
:10805000C3810008C3810008C3810008C3810008F0
:10806000C3810008C3810008C3810008C3810008E0
:10807000C3810008C3810008C3810008C3810008D0
:10808000C3810008C3810008C3810008000000000C
:10809000000000000000000000000000C381000894
:1080A000C3810008C3810008C3810008C3810008A0
:1080B000C3810008C3810008C3810008C381000890
:1080C000C3810008C3810008C3810008C381000880
:1080D000C3810008C3810008C381000800000000BC
:1080E000C3810008C3810008C381000800000000AC
:1080F000000000000000000000000000C381000834
:1081000000000000C3810008C3810008C38100088B
:10811000000000000000000000000000000000005F
:10812000C3810008C3810008C3810008C38100081F
:10813000C3810008000000000000000000000000F3
:10814000000000000000000000000000C3810008E3
:10815000C3810008C3810008C3810008C3810008EF
:10816000C3810008C3810008000000000000000077
:1081700000000000000000000000000000000000FF
:1081800000000000C38100080000000000000000A3
:10819000C3810008DFF80CD000F068F80048004701
:1081A0001D910008980400200648804706480047B3
:1081B000FEE7FEE7FEE7FEE7FEE7FEE7FEE7FEE797
:1081C000FEE7FEE7ED8D0008958100082DE9F05FE0
:1081D0000546002092469B46884606468146402436
:1081E0001BE0284641464746224600F02FF85346FA
:1081F0005A46C01A914110D311461846224600F043
:1082000016F82D1A67EB01084F462246012000217F
:1082100000F00DF817EB00094E41201EA4F10104F7
:10822000DFDC484631462A464346BDE8F09F202A17
:1082300004DB203A00FA02F1002070479140C2F1BD
:10824000200320FA03F3194390407047202A04DBEF
:10825000203A21FA02F00021704721FA02F3D040BF
:10826000C2F120029140084319467047064C074D61
:1082700006E0E06840F0010394E8070098471034F6
:10828000AC42F6D3FFF78AFFC4910008E4910008DE
:1082900010B5040002D0607910B106E0012010BDD5
:1082A00000202071204600F007F8022060710120B4
:1082B0006071002010BD000008B5006806498842C2
:1082C00008D10648016841F480510160006800F45B
:1082D0008050009008BD000000300240303802405D
:1082E0002DE9F84FDFF860B100224FF001084FF0A0
:1082F000030A4FF00F090BF1040E00BF0B6808FAD8
:1083000002F42340A3426ED14D68022D01D0122DFC
:108310000ED1D50800EB850CDCF820505607F70E7F
:1083200009FA07F6B5430E69BE402E43CCF820602B
:10833000066855000F790AFA05FC07F0030726EADC
:108340000C06AF40374307604E68012E05D0022E61
:1083500003D0112E01D0122E0ED18668CF6826EAE6
:108360000C06AF40374387604668A6430C79C4F3D8
:108370000014944034434460C6688C6826EA0C06B6
:10838000AC403443C4604C68E40056D52F4C25689B
:1083900045F480452560246822F0030504F48044F8
:1083A00000942B4C2E19D6F8084895072F0F09FA80
:1083B00007F5AC43274DA84201D1002515E0264D15
:1083C000A84201D1012510E0244DA84201D1022587
:1083D0000BE0234DA84201D1032506E0214DA84220
:1083E00002D1042501E028E00725BD402543C6F859
:1083F0000858DBF800405D464E689C43F60300D504
:108400001C432C60DEF8004075464E689C43B60362
:1084100000D51C432C600C4D08352C684E689C43DD
:10842000F60200D51C432C60074D0C352C684E68B5
:108430009C43B60200D51C432C60521C102AFFF44A
:108440005DAFBDE8F88F0000003C014044380240B9
:1084500000300140000002400004024000080240D9
:10846000000C0240001002400AB18161704709040B
:10847000FBE700000148806870470000080000200A
:10848000024881680278114481607047080000202A
:108490000B4810B5016841F400710160016841F4B6
:1084A00080610160016841F480710160032000F087
:1084B0008BF8002000F006F800F024F8002010BD32
:1084C000003C024070B50D4D04464FF47A71287897
:1084D000B1FBF0F00A490968B1FBF0F000F00FFBC6
:1084E00048B9102C07D200222146501E00F04CF84B
:1084F00000206C6070BD012070BD000008000020ED
:10850000140000201F4808B5016841F48041016053
:10851000006800F4804000901A48001F016841F094
:1085200080510160006800F080500090072000F04A
:108530004BF8002211466FF00B0000F025F80022E6
:1085400011466FF00A0000F01FF8002211466FF08C
:10855000090000F019F800221146501F00F014F82D
:1085600000221146101F00F00FF800221146901E45
:1085700000F00AF80022BDE808401146501E00F045
:1085800003B8000044380240F0B40E4B1B680C46A0
:10859000C3F30223C3F10705042D00D90425191DD7
:1085A000072901D2002300E0DB1E012606FA05F1AF
:1085B000491E214099409E40761E16403143F0BC32
:1085C00000F0ACBB0CED00E0064900F007020868C3
:1085D0004FF6FF03184040EA0220034A10430860A8
:1085E000704700000CED00E00000FA052DE9F047AF
:1085F0000E46050065D0DFF81481D8F80000F7B208
:1086000000F00F00B04207D288F80070D8F80000E0
:1086100000F00F00B04254D128683D4C810712D5BC
:10862000400703D5206840F4E05020602878000718
:1086300003D5206840F4604020602068A96820F0DD
:10864000F000084320602878C0072DD030496868C2
:108650000839012812D0022813D0032811D0096844
:10866000890700292DDA216821F0030101432160E7
:10867000FFF700FF814641F2883A0EE0096889035E
:10868000EFE709688901ECE7FFF7F4FEA0EB0901C9
:10869000514502D90320BDE8F0872068696800F0E1
:1086A0000C00B0EB810FEFD1D8F80010404601F07C
:1086B0000F01B14207D90770006800F00F00B04207
:1086C00001D00120E7E72878400705D52068E96850
:1086D00020F4E050084320602878000706D5206881
:1086E000296920F4604040EAC100206000F03CF8B5
:1086F0002168084AC1F30311515CC840064908606B
:108700000020FFF7DFFE0020C5E70000003C02402C
:1087100008380240A89100081400002001480068B1
:1087200070470000140000200448054900680968EB
:10873000044AC1F38221515CC840704714000020F4
:1087400008380240B89100080448054900680968E3
:10875000044AC1F34231515CC84070471400002004
:1087600008380240B8910008154810B5006810F0AC
:108770000C02144813D04110042A0FD0082A0ED13D
:108780000F4C241F2268236802F03F025B0207D5CA
:108790002068C0F38810A0FB010106E0084610BD68
:1087A0002168C1F38811A1FB00010023FFF70EFD32
:1087B0002168C1F30141491C4900B0FBF1F010BD33
:1087C000083802400024F4002DE9F84F050076D067
:1087D0002878DFF8F8B2BE4CC00749D0DBF80010AB
:1087E0005846C1F38101012908D00068C0F3810017
:1087F00002280AD1201D0068400206D520688003A7
:1088000036D568680028E2D032E06868B0F5803F6D
:1088100010D0B0F5A02F206810D020F48030206058
:10882000206820F4802020606868A0B1FFF722FE55
:1088300006460CE0206840F48030F4E740F48020E5
:108840002060F7E7FFF716FE801B642873D82068C6
:108850008003F7D50CE0FFF70DFE064605E000BFEC
:10886000FFF708FE801B6428F0D820688003F7D447
:108870002878DFF8608280074FF000093ED5DBF8EA
:108880000010584611F00C0F09D00068C0F38100A9
:1088900002280BD18D48001F0068400206D42068D2
:1088A000800715D5E868012809D111E0E868B8B15A
:1088B0000120C8F80000FFF7DDFD064605E002E1F3
:1088C000FFF7D8FD801B0228C0D820688007F7D5A5
:1088D0002068296920F0F80040EAC10020600DE01E
:1088E000C8F80090FFF7C6FD064604E0FFF7C2FD9A
:1088F000801B02281FD820688007F7D4287800073B
:1089000022D5724E744869696C3671B101210160DB
:10891000FFF7B0FD074604E0FFF7ACFDC01B0228DF
:1089200009D830688007F7D50EE0C0F80090FFF74F
:10893000A1FD074605E083E0FFF79CFDC01B022870
:108940007ED830688007F7D42878400768D5DFF8EC
:108950007CA100270AF1380ADAF80000C0000BD425
:10896000DAF8001041F08051CAF80010DAF800007F
:10897000012700F080500090584E3068C00510D498
:10898000306840F480703060FFF774FD009005E0BF
:10899000FFF770FD0099401A022851D83068C005D1
:1089A000F6D54A4EA868683601280FD005283068E9
:1089B00010D020F001003060306820F004003060FA
:1089C000A868B8B1FFF756FD00900FE0306840F09E
:1089D0000100F4E740F004003060F7E7FFF74AFDDC
:1089E0000099411A41F28830814264D8306880078A
:1089F000F4D50EE0FFF73EFD009007E0FFF73AFDEB
:108A00000099411A41F28830814254D83068800779
:108A1000F4D42FB1DAF8001021F08051CAF8001018
:108A2000A869C0B3DBF80010C1F3810102294AD064
:108A30000228484607D0C8F86000FFF71BFD00E099
:108A400039E005463AE04746C8F86000FFF712FDF6
:108A5000064604E0FFF70EFD801B02282BD8206895
:108A60008001F7D4D5E907010843A96A1C4A4908DF
:108A700002EB01416A6A41EA8211084395F82C1021
:108A800040EA01611148001F016001203866FFF7CC
:108A9000F1FC054605E014E0FFF7ECFC401B022862
:108AA00009D820688001F7D50BE000BFFFF7E2FC92
:108AB000401B022802D90320BDE8F88F20688001FE
:108AC000F4D40020F8E70120F6E70000083802405F
:108AD0000038024000004742800E474200700040CC
:108AE0000000FFFF4FF0E0210428086903D020F0C8
:108AF00004000861704740F00400FAE7704710B5C1
:108B0000401EB0F1807F01D3012010BD4FF0E02462
:108B100060610F21601700F001F90020A0610720BB
:108B20002061002010BD10B5FFF7E8FF10BD70B543
:108B3000040004D094F83900002510B106E00120AB
:108B400070BD84F83850204600F022F8242084F8C4
:108B500039002068C16821F40051C160204600F04E
:108B60006FF92068016921F4904101612068416931
:108B700021F02A0141612068C16841F40051C160BF
:108B8000E563202084F8390084F83A00002070BDA5
:108B900030B51A4D0168002202230724184887B017
:108BA000A94213D117490A6842F010020A60096805
:108BB00001F0100105914FF4C061CDE900130121CE
:108BC00002910321CDE90314694613E00E4DA94239
:108BD00012D10C49091F0D6845F400350D60096874
:108BE00001F4003105910C210091CDE90132CDE96C
:108BF00003246946FFF774FB07B030BD0010014045
:108C00000000024044380240004400400F48016820
:108C100041F0010101600E48016821F440610160EA
:108C2000016841F480610160416821F020014160E8
:108C3000816821F440618160816841F480618160D4
:108C4000C16821F44061C1600020704730380240A3
:108C50000000024030B904488169044A128841EAA0
:108C6000024181610020704700000240C09100086D
:108C700028B904488169044A1268114381610020BF
:108C80007047000000000240C091000830B51F4846
:108C900087B00024016841F004010160016801F01F
:108CA00004010591016841F080010160016801F053
:108CB00080010591016841F001010160016801F046
:108CC00001010591016841F0020101600068104D49
:108CD00000F002000590002220212846FFF7C4FB87
:108CE0004FF4005000900B48CDE9010469460A4852
:108CF000FFF7F6FA202000900120CDE90104694633
:108D000028460394FFF7ECFA07B030BD3038024034
:108D10000000024000002110000802400907090E6F
:108D2000002806DA00F00F0000F1E02080F8141DA2
:108D3000704700F1E02080F80014704710B5FFF78D
:108D40009FFBBDE81040FFF7EEBE000030B52548A0
:108D500093B00024016841F080510160006800F088
:108D6000805011902048016821F4404141F40041B5
:108D700001600068022500F440401190012003903A
:108D80001020009506950490CDE907404FF4A87097
:108D9000099004200A9007200B906846FFF714FD05
:108DA00000B1FEE70F20CDE90C054FF48050CDE96E
:108DB0000E4002210CA81094FFF718FC00B1FEE74A
:108DC000FFF7ACFC4FF47A71B0FBF1F0FFF797FEC0
:108DD0000420FFF787FE00221146501EFFF7D4FB48
:108DE00013B030BD403802400070004010480168A8
:108DF00041F4700101600F48016841F00101016018
:108E00000C4A00210832116002680B4B1A400260C4
:108E1000031D0A4A1A60026822F480220260054893
:108E20000C30016002495806803908607047000024
:108E300088ED00E000380240FFFFF6FE103000240D
:108E40002DE9F04104460068016921F44052E168CF
:108E5000114301612168C86849F20C62904323699B
:108E6000A268E5691A4363692B431A430243CA6047
:108E70002168486920F44072A06910434861E169A3
:108E80006425B1F5004F9748974A21684FF03208A2
:108E90003FD0914201D081427CD1FFF755FC00EBDD
:108EA000C00101EB001061688900B0FBF1F6FFF72B
:108EB0004BFC00EBC00101EB001061688900B0FBC6
:108EC000F1F0B0FBF5F06FF01801484306EB8001BC
:108ED00008EB0110B0FBF5F000F0F006FFF734FCF2
:108EE00000EBC00101EB001061688900B0FBF1F0FC
:108EF000B0FBF5F006EB0016FFF726FC00EBC00117
:108F000001EB001061688900B0FBF1F7FFF71CFC72
:108F1000D2E0914201D081423DD1FFF715FC00EB38
:108F2000C00101EB001061684900B0FBF1F0B0FB3B
:108F3000F5F00601FFF708FC00EBC00101EB0010A3
:108F400061684900B0FBF1F7FFF7FEFB00EBC001E1
:108F500001EB001061684900B0FBF1F0B0FBF5F0E7
:108F60006FF01801484307EB800108EBC100B0FB2C
:108F7000F5F000F0F80006EB4006FFF7E5FB00EB2C
:108F8000C00101EB001061684900B0FBF1F7FFF789
:108F9000DBFB3CE055E0FFF7C7FB00EBC00101EB5A
:108FA000001061684900B0FBF1F0B0FBF5F006017C
:108FB000FFF7BAFB00EBC00101EB0010616849004C
:108FC000B0FBF1F7FFF7B0FB00EBC00101EB0010C5
:108FD00061684900B0FBF1F0B0FBF5F06FF01801EB
:108FE000484307EB800108EBC100B0FBF5F000F04F
:108FF000F80006EB4006FFF797FB00EBC00101EB22
:10900000001061684900B0FBF1F7FFF78DFB00EB42
:10901000C00101EB001061684900B0FBF1F0B0FB4A
:10902000F5F06FF01801484307EB800108EBC10031
:10903000B0FBF5F000F00700216830448860BDE81F
:10904000F081FFF771FB00EBC00101EB00106168DC
:109050008900B0FBF1F6FFF767FB00EBC00101EB05
:10906000001061688900B0FBF1F0B0FBF5F06FF023
:109070001801484306EB800108EB0110B0FBF5F046
:1090800000F0F006FFF750FB00EBC00101EB001011
:1090900061688900B0FBF1F0B0FBF5F006EB00165B
:1090A000FFF742FB00EBC00101EB00106168890093
:1090B000B0FBF1F7FFF738FB00EBC00101EB00104C
:1090C00061688900B0FBF1F0B0FBF5F06FF01801BA
:1090D000484307EB800108EB0110B0FBF5F000F00E
:1090E0000F00A9E7001401400010014002E008C889
:1090F000121F08C1002AFAD170477047002001E012
:1091000001C1121F002AFBD1704700000249002054
:10911000401C8842FCD37047404B4C00FFF7B8F925
:10912000FFF714FEFFF7B2FD1B481A494FF4E13573
:1091300000240160C0E901540C26C460C0E9044663
:109140008461C461FFF7F3FC00B1FEE714491348E2
:1091500008600846FFF79CF800B1FEE70E48114989
:1091600040380160C0E90154C460C0E9044684612C
:10917000C461FFF7DCFC00B1FEE7FFF747FD00200C
:10918000FFF776FDFFF7C2FF0020FFF763FDFFF753
:10919000BDFFF2E7004400405800002000300240CC
:1091A000000000200010014000000000000000004E
:1091B000010203040607080900000000010203047D
:1091C00020000000E49100080000002018000000CA
:1091D000EC900008FC9100081800002080040000BA
:1091E000FC900008000000000000000001000000EA
:0C91F00010000000000000000024F4004B
:0400000508008195D9
:00000001FF
